{"contracts/PredictionMarket.sol":{"PredictionMarket":{"abi":[{"inputs":[{"internalType":"address","name":"_vaultAddress","type":"address"},{"internalType":"address","name":"_resolverAddress","type":"address"}],"stateMutability":"nonpayable","type":"constructor"},{"inputs":[],"name":"EnforcedPause","type":"error"},{"inputs":[],"name":"ExpectedPause","type":"error"},{"inputs":[{"internalType":"address","name":"owner","type":"address"}],"name":"OwnableInvalidOwner","type":"error"},{"inputs":[{"internalType":"address","name":"account","type":"address"}],"name":"OwnableUnauthorizedAccount","type":"error"},{"inputs":[],"name":"ReentrancyGuardReentrantCall","type":"error"},{"anonymous":false,"inputs":[{"indexed":true,"internalType":"uint256","name":"marketId","type":"uint256"},{"indexed":true,"internalType":"address","name":"user","type":"address"},{"indexed":false,"internalType":"bytes32","name":"commitHash","type":"bytes32"},{"indexed":false,"internalType":"uint256","name":"amount","type":"uint256"}],"name":"BetCommitted","type":"event"},{"anonymous":false,"inputs":[{"indexed":true,"internalType":"uint256","name":"marketId","type":"uint256"},{"indexed":true,"internalType":"address","name":"user","type":"address"},{"indexed":false,"internalType":"bool","name":"outcome","type":"bool"},{"indexed":false,"internalType":"uint256","name":"amount","type":"uint256"},{"indexed":false,"internalType":"uint256","name":"shares","type":"uint256"}],"name":"BetRevealed","type":"event"},{"anonymous":false,"inputs":[{"indexed":true,"internalType":"uint256","name":"marketId","type":"uint256"}],"name":"MarketCancelled","type":"event"},{"anonymous":false,"inputs":[{"indexed":true,"internalType":"uint256","name":"marketId","type":"uint256"},{"indexed":true,"internalType":"address","name":"creator","type":"address"},{"indexed":false,"internalType":"string","name":"title","type":"string"},{"indexed":false,"internalType":"uint256","name":"expiresAt","type":"uint256"},{"indexed":false,"internalType":"uint8","name":"category","type":"uint8"}],"name":"MarketCreated","type":"event"},{"anonymous":false,"inputs":[{"indexed":true,"internalType":"uint256","name":"marketId","type":"uint256"},{"indexed":false,"internalType":"bool","name":"outcome","type":"bool"},{"indexed":false,"internalType":"string","name":"reasoning","type":"string"}],"name":"MarketResolved","type":"event"},{"anonymous":false,"inputs":[{"indexed":true,"internalType":"address","name":"previousOwner","type":"address"},{"indexed":true,"internalType":"address","name":"newOwner","type":"address"}],"name":"OwnershipTransferred","type":"event"},{"anonymous":false,"inputs":[{"indexed":false,"internalType":"address","name":"account","type":"address"}],"name":"Paused","type":"event"},{"anonymous":false,"inputs":[{"indexed":false,"internalType":"address","name":"account","type":"address"}],"name":"Unpaused","type":"event"},{"anonymous":false,"inputs":[{"indexed":true,"internalType":"uint256","name":"marketId","type":"uint256"},{"indexed":true,"internalType":"address","name":"user","type":"address"},{"indexed":false,"internalType":"uint256","name":"amount","type":"uint256"}],"name":"WinningsClaimed","type":"event"},{"inputs":[],"name":"COMMIT_REVEAL_TIMEOUT","outputs":[{"internalType":"uint256","name":"","type":"uint256"}],"stateMutability":"view","type":"function"},{"inputs":[],"name":"MAX_BET_AMOUNT","outputs":[{"internalType":"uint256","name":"","type":"uint256"}],"stateMutability":"view","type":"function"},{"inputs":[],"name":"MIN_BET_AMOUNT","outputs":[{"internalType":"uint256","name":"","type":"uint256"}],"stateMutability":"view","type":"function"},{"inputs":[],"name":"PLATFORM_FEE_PERCENT","outputs":[{"internalType":"uint256","name":"","type":"uint256"}],"stateMutability":"view","type":"function"},{"inputs":[],"name":"PRICE_PRECISION","outputs":[{"internalType":"uint256","name":"","type":"uint256"}],"stateMutability":"view","type":"function"},{"inputs":[{"internalType":"uint256","name":"","type":"uint256"},{"internalType":"address","name":"","type":"address"}],"name":"bets","outputs":[{"internalType":"uint256","name":"marketId","type":"uint256"},{"internalType":"address","name":"user","type":"address"},{"internalType":"bool","name":"outcome","type":"bool"},{"internalType":"uint256","name":"shares","type":"uint256"},{"internalType":"uint256","name":"amount","type":"uint256"},{"internalType":"uint256","name":"revealedAt","type":"uint256"},{"internalType":"bool","name":"claimed","type":"bool"}],"stateMutability":"view","type":"function"},{"inputs":[{"internalType":"uint256","name":"marketId","type":"uint256"},{"internalType":"address","name":"user","type":"address"}],"name":"calculatePayout","outputs":[{"internalType":"uint256","name":"","type":"uint256"}],"stateMutability":"view","type":"function"},{"inputs":[{"internalType":"uint256","name":"marketId","type":"uint256"}],"name":"cancelMarket","outputs":[],"stateMutability":"nonpayable","type":"function"},{"inputs":[{"internalType":"uint256","name":"marketId","type":"uint256"}],"name":"claimRefund","outputs":[],"stateMutability":"nonpayable","type":"function"},{"inputs":[{"internalType":"uint256","name":"marketId","type":"uint256"}],"name":"claimWinnings","outputs":[],"stateMutability":"nonpayable","type":"function"},{"inputs":[{"internalType":"uint256","name":"marketId","type":"uint256"},{"internalType":"bytes32","name":"commitHash","type":"bytes32"}],"name":"commitBet","outputs":[],"stateMutability":"payable","type":"function"},{"inputs":[{"internalType":"uint256","name":"","type":"uint256"},{"internalType":"address","name":"","type":"address"}],"name":"commitments","outputs":[{"internalType":"bytes32","name":"commitHash","type":"bytes32"},{"internalType":"uint256","name":"amount","type":"uint256"},{"internalType":"uint256","name":"timestamp","type":"uint256"},{"internalType":"bool","name":"revealed","type":"bool"}],"stateMutability":"view","type":"function"},{"inputs":[{"internalType":"string","name":"title","type":"string"},{"internalType":"string","name":"description","type":"string"},{"internalType":"uint256","name":"expiresAt","type":"uint256"},{"internalType":"uint8","name":"category","type":"uint8"}],"name":"createMarket","outputs":[{"internalType":"uint256","name":"","type":"uint256"}],"stateMutability":"nonpayable","type":"function"},{"inputs":[],"name":"emergencyWithdraw","outputs":[],"stateMutability":"nonpayable","type":"function"},{"inputs":[{"internalType":"uint256","name":"marketId","type":"uint256"},{"internalType":"address","name":"user","type":"address"}],"name":"getBet","outputs":[{"components":[{"internalType":"uint256","name":"marketId","type":"uint256"},{"internalType":"address","name":"user","type":"address"},{"internalType":"bool","name":"outcome","type":"bool"},{"internalType":"uint256","name":"shares","type":"uint256"},{"internalType":"uint256","name":"amount","type":"uint256"},{"internalType":"uint256","name":"revealedAt","type":"uint256"},{"internalType":"bool","name":"claimed","type":"bool"}],"internalType":"struct PredictionMarket.Bet","name":"","type":"tuple"}],"stateMutability":"view","type":"function"},{"inputs":[{"internalType":"uint256","name":"marketId","type":"uint256"},{"internalType":"address","name":"user","type":"address"}],"name":"getCommitment","outputs":[{"components":[{"internalType":"bytes32","name":"commitHash","type":"bytes32"},{"internalType":"uint256","name":"amount","type":"uint256"},{"internalType":"uint256","name":"timestamp","type":"uint256"},{"internalType":"bool","name":"revealed","type":"bool"}],"internalType":"struct PredictionMarket.Commitment","name":"","type":"tuple"}],"stateMutability":"view","type":"function"},{"inputs":[{"internalType":"uint256","name":"marketId","type":"uint256"}],"name":"getMarket","outputs":[{"components":[{"internalType":"uint256","name":"id","type":"uint256"},{"internalType":"string","name":"title","type":"string"},{"internalType":"string","name":"description","type":"string"},{"internalType":"address","name":"creator","type":"address"},{"internalType":"uint256","name":"createdAt","type":"uint256"},{"internalType":"uint256","name":"expiresAt","type":"uint256"},{"internalType":"uint8","name":"category","type":"uint8"},{"internalType":"uint256","name":"totalPool","type":"uint256"},{"internalType":"uint256","name":"yesPool","type":"uint256"},{"internalType":"uint256","name":"noPool","type":"uint256"},{"internalType":"uint256","name":"yesShares","type":"uint256"},{"internalType":"uint256","name":"noShares","type":"uint256"},{"internalType":"uint256","name":"participants","type":"uint256"},{"internalType":"enum PredictionMarket.MarketStatus","name":"status","type":"uint8"},{"internalType":"bool","name":"outcome","type":"bool"},{"internalType":"string","name":"resolutionReasoning","type":"string"}],"internalType":"struct PredictionMarket.Market","name":"","type":"tuple"}],"stateMutability":"view","type":"function"},{"inputs":[],"name":"getMarketCount","outputs":[{"internalType":"uint256","name":"","type":"uint256"}],"stateMutability":"view","type":"function"},{"inputs":[],"name":"marketIdCounter","outputs":[{"internalType":"uint256","name":"","type":"uint256"}],"stateMutability":"view","type":"function"},{"inputs":[{"internalType":"uint256","name":"","type":"uint256"},{"internalType":"uint256","name":"","type":"uint256"}],"name":"marketParticipants","outputs":[{"internalType":"address","name":"","type":"address"}],"stateMutability":"view","type":"function"},{"inputs":[{"internalType":"uint256","name":"","type":"uint256"}],"name":"markets","outputs":[{"internalType":"uint256","name":"id","type":"uint256"},{"internalType":"string","name":"title","type":"string"},{"internalType":"string","name":"description","type":"string"},{"internalType":"address","name":"creator","type":"address"},{"internalType":"uint256","name":"createdAt","type":"uint256"},{"internalType":"uint256","name":"expiresAt","type":"uint256"},{"internalType":"uint8","name":"category","type":"uint8"},{"internalType":"uint256","name":"totalPool","type":"uint256"},{"internalType":"uint256","name":"yesPool","type":"uint256"},{"internalType":"uint256","name":"noPool","type":"uint256"},{"internalType":"uint256","name":"yesShares","type":"uint256"},{"internalType":"uint256","name":"noShares","type":"uint256"},{"internalType":"uint256","name":"participants","type":"uint256"},{"internalType":"enum PredictionMarket.MarketStatus","name":"status","type":"uint8"},{"internalType":"bool","name":"outcome","type":"bool"},{"internalType":"string","name":"resolutionReasoning","type":"string"}],"stateMutability":"view","type":"function"},{"inputs":[],"name":"owner","outputs":[{"internalType":"address","name":"","type":"address"}],"stateMutability":"view","type":"function"},{"inputs":[],"name":"pause","outputs":[],"stateMutability":"nonpayable","type":"function"},{"inputs":[],"name":"paused","outputs":[{"internalType":"bool","name":"","type":"bool"}],"stateMutability":"view","type":"function"},{"inputs":[{"internalType":"uint256","name":"","type":"uint256"}],"name":"pendingReveals","outputs":[{"internalType":"uint256","name":"","type":"uint256"}],"stateMutability":"view","type":"function"},{"inputs":[],"name":"renounceOwnership","outputs":[],"stateMutability":"nonpayable","type":"function"},{"inputs":[{"internalType":"uint256","name":"marketId","type":"uint256"},{"internalType":"bool","name":"outcome","type":"bool"},{"internalType":"string","name":"reasoning","type":"string"}],"name":"resolveMarket","outputs":[],"stateMutability":"nonpayable","type":"function"},{"inputs":[],"name":"resolverAddress","outputs":[{"internalType":"address","name":"","type":"address"}],"stateMutability":"view","type":"function"},{"inputs":[{"internalType":"uint256","name":"marketId","type":"uint256"},{"internalType":"bool","name":"outcome","type":"bool"},{"internalType":"bytes32","name":"salt","type":"bytes32"}],"name":"revealBet","outputs":[],"stateMutability":"nonpayable","type":"function"},{"inputs":[{"internalType":"address","name":"_resolverAddress","type":"address"}],"name":"setResolverAddress","outputs":[],"stateMutability":"nonpayable","type":"function"},{"inputs":[{"internalType":"address","name":"_vaultAddress","type":"address"}],"name":"setVaultAddress","outputs":[],"stateMutability":"nonpayable","type":"function"},{"inputs":[{"internalType":"address","name":"newOwner","type":"address"}],"name":"transferOwnership","outputs":[],"stateMutability":"nonpayable","type":"function"},{"inputs":[],"name":"unpause","outputs":[],"stateMutability":"nonpayable","type":"function"},{"inputs":[],"name":"vaultAddress","outputs":[{"internalType":"address","name":"","type":"address"}],"stateMutability":"view","type":"function"}],"evm":{"bytecode":{"linkReferences":{},"object":"608034620000f057601f620027da38819003918201601f19168301916001600160401b03831184841017620000f5578084926040948552833981010312620000f0576200005a602062000052836200010b565b92016200010b565b903315620000d7576000549160018060a01b03908160018060a01b031993338587161760005560405195823391167f8be0079c531659141344cd1fd0a4f28419497f9722a3daafe3b4186f6b6457e0600080a360018055168360045416176004551690600554161760055560006003556126b99081620001218239f35b604051631e4fbdf760e01b815260006004820152602490fd5b600080fd5b634e487b7160e01b600052604160045260246000fd5b51906001600160a01b0382168203620000f05756fe608080604052600436101561001357600080fd5b60003560e01c90816304abca541461210257508063309167f5146120de578063399567b91461208c5780633f4ba83a14612022578063430bf08a14611ff9578063560d52d414611fdd5780635b7baf6414611e795780635c975abb14611e565780636475e3d314611e34578063677bd9ff14611b2f5780636d1c789f1461019557806370822fd7146118d9578063715018a6146118805780637c16cd9e1461173e5780638456cb59146116e457806385535cc5146116a157806389fb2682146115ea5780638da5cb5b146115c157806395082d251461159e578063b0307a61146110b7578063b08c7fac1461108b578063b1283e7714610f5c578063b1db5bec14610f33578063b726be7f14610f05578063baaa80bb14610c15578063c4ebecf2146107a7578063db2e21bc1461072e578063dd28218b146106eb578063e0950ddf146105de578063e90d4c061461056f578063eb44fdd3146102d9578063f2fde38b1461024b578063f644b3bb146101b85763fd69f3c21461019557600080fd5b346101b35760003660031901126101b3576020600354604051908152f35b600080fd5b346101b35760403660031901126101b35760e06101d3612161565b6004356000526008602052604060002060018060a01b038092166000526020526040600020908154916001810154600282015460ff600384015492816005600487015496015416956040519788528116602088015260a01c16151560408601526060850152608084015260a0830152151560c0820152f35b346101b35760203660031901126101b35761026461214b565b61026c612616565b6001600160a01b039081169081156102c057600054826bffffffffffffffffffffffff60a01b821617600055167f8be0079c531659141344cd1fd0a4f28419497f9722a3daafe3b4186f6b6457e0600080a3005b604051631e4fbdf760e01b815260006004820152602490fd5b346101b35760203660031901126101b35760606101e06040516102fb816121af565b6000815282602082015282604082015260008382015260006080820152600060a0820152600060c0820152600060e08201526000610100820152600061012082015260006101408201526000610160820152600061018082015260006101a082015260006101c0820152015260043560005260066020526040600020604051610383816121af565b815481526103936001830161228b565b60208201526103a46002830161228b565b604082015260038201546001600160a01b031660608201526004808301546080830152600583015460a0830152600683015460ff90811660c0840152600784015460e084015260088401546101008401526009840154610120840152600a840154610140840152600b840154610160840152600c840154610180840152600d8401549391908416101561055957600e6104589160ff858161055597166101a087015260081c1615156101c08501520161228b565b6101e082015260405191829160208352805160208401526101e06104a661049060208401516102006040880152610220870190612330565b6040840151868203601f19016060880152612330565b9160018060a01b036060820151166080860152608081015160a086015260a081015160c086015260ff60c08201511660e086015260e08101516101008601526101008101516101208601526101208101516101408601526101408101516101608601526101608101516101808601526101808101516101a08601526105356101a08201516101c0870190612370565b6101c08101511515858301520151838203601f1901610200850152612330565b0390f35b634e487b7160e01b600052602160045260246000fd5b346101b35760403660031901126101b357610588612161565b600435600052600760205260406000209060018060a01b03166000526020526080604060002080549060018101549060ff6003600283015492015416916040519384526020840152604083015215156060820152f35b346101b35760403660031901126101b35760e06105f9612161565b600060c060405161060981612193565b8281528260208201528260408201528260608201528260808201528260a082015201526004356000526008602052604060002060018060a01b0380921660005260205260406000206040519061065e82612193565b8054928383526001820154906020840191818116835260ff604086019160a01c1615158152600284015491606086019283526003850154936080870194855260c060ff600560048901549860a08b01998a52015416970196151587526040519788525116602087015251151560408601525160608501525160808401525160a083015251151560c0820152f35b346101b35760203660031901126101b35761070461214b565b61070c612616565b600580546001600160a01b0319166001600160a01b0392909216919091179055005b346101b35760003660031901126101b357610747612616565b6000805481908190819047906001600160a01b03165af161076661245e565b501561076e57005b60405162461bcd60e51b815260206004820152601160248201527015da5d1a191c985dd85b0819985a5b1959607a1b6044820152606490fd5b346101b35760603660031901126101b3576107c061237d565b6107c8612642565b60043560005260066020526107e3604060002054151561238c565b6004356000526006602052604060002060ff600d820154166004811015610559578015908115610c0a575b5015610bc55760043560005260076020526040600020336000526020526040600020805461083d8115156123dd565b61084e60ff6003840154161561241f565b604051602081019185151560f81b835260443560218301523360601b604183015260358252606082019282841067ffffffffffffffff851117610acd57836040528251902003610b93575050600181015490600a830154801580610b87575b15610b205750670de0b6b3a7640000808302908382041483151715610ae357662386f26fc100009004925b600781016108e78482546123d0565b90558415610af957600881016108fe8482546123d0565b905561090e84600a8301546123d0565b600a8201555b6040519161092183612193565b60043583526109d860208401933385526005604082018915158152606083018981526080840189815260a085019142835260c0860193600085526004356000526008602052604060002033600052602052604060002096518755600187019060018060a01b03809c511682549160ff60a01b9051151560a01b16916affffffffffffffffffffff60a81b161717905551600286015551600385015551600484015551151591019060ff801983541691151516179055565b600301805460ff191660011790556004356000908152600a6020526040902080548015610ae357600019019055600435600052600860205260406000203360005260205260036040600020015415610a6f575b505060405192151583526020830152604082015233907f403919df18953314f70218b572f014af7a4bbed7a7e4e84cd46d195f4a0112fd606060043592a360018055005b600435600052600960205260406000209182549268010000000000000000841015610acd5783610aa6916001600c9601815561211d565b819291549060031b9133831b921b191617905501610ac4815461250e565b90558380610a2b565b634e487b7160e01b600052604160045260246000fd5b634e487b7160e01b600052601160045260246000fd5b60098101610b088482546123d0565b9055600b8101610b198582546123d0565b9055610914565b600b840154610b2e916123d0565b8415610b7d5760088401545b670de0b6b3a76400009182820291808304841490151715610ae357610b5e916124a1565b818402918483041484151715610ae357610b77916124a1565b926108d8565b6009840154610b3a565b50600b840154156108ad565b906d125b9d985b1a59081c995d99585b60921b60a460649362461bcd60e51b8452602085820152600e60848201520152fd5b60405162461bcd60e51b815260206004820152601b60248201527f43616e6e6f742072657665616c20696e207468697320737461746500000000006044820152606490fd5b60019150148361080e565b346101b35760603660031901126101b357600435610c3161237d565b67ffffffffffffffff91906044358381116101b357610c5490369060040161220a565b6005549091906001600160a01b03163303610ed0578260005260209160068352610c84604060002054151561238c565b83600052600683526040600020600d810180549360ff85166004811015610559578015908115610ec5575b5015610e805760058301544210610e4257906002600e939215159561ff008760081b169061ffff191617179055018151958611610acd57610cf08154612251565b601f8111610dfc575b508395601f8111600114610d73579081610d6393927f42a997d59f6b8f3a77a30dd8edcd073271da93de0c005b0de8557108641bbb5b9798600091610d68575b508160011b916000199060031b1c19161790555b6040805194859485528401526040830190612330565b0390a2005b905083015189610d39565b601f19811682600052856000209060005b818110610de55750916001917f42a997d59f6b8f3a77a30dd8edcd073271da93de0c005b0de8557108641bbb5b989982610d6397969510610dcc575b5050811b019055610d4d565b85015160001960f88460031b161c191690558980610dc0565b858a01518355988701986001909201918701610d84565b8160005284600020601f880160051c810191868910610e38575b601f0160051c01905b818110610e2c5750610cf9565b60008155600101610e1f565b9091508190610e16565b60405162461bcd60e51b815260048101879052601660248201527513585c9ad95d081b9bdd08195e1c1a5c9959081e595d60521b6044820152606490fd5b60405162461bcd60e51b815260048101879052601b60248201527f4d61726b6574206e6f7420696e20636f727265637420737461746500000000006044820152606490fd5b600191501489610caf565b60405162461bcd60e51b815260206004820152600d60248201526c27b7363c903932b9b7b63b32b960991b6044820152606490fd5b346101b35760403660031901126101b3576020610f2b610f23612161565b60043561251d565b604051908152f35b346101b35760003660031901126101b3576005546040516001600160a01b039091168152602090f35b346101b35760203660031901126101b3576004356000526006602052604060002080549060018101610f8d9061228b565b90610f9a6002820161228b565b92600160a01b600190036003830154169160048101546005820154600683015460ff1660078401546008850154600986015491600a87015493600b88015495600c89015497600d8a015499600e01610ff19061228b565b9b6040519e8f9e8f9d8e6102009181528160208201520161101191612330565b8d810360408f015261102291612330565b6060909c015260808d015260a08c015260c08b015260e08a015261010089015261012088015261014087015261016086015261018085015261106b6101a0850160ff8316612370565b60081c60ff1615156101c08401528281036101e084015261055591612330565b346101b35760203660031901126101b357600435600052600a6020526020604060002054604051908152f35b346101b35760803660031901126101b35760043567ffffffffffffffff81116101b3576110e890369060040161220a565b60243567ffffffffffffffff81116101b35761110890369060040161220a565b60643560ff811681036101b35761111d612665565b610e104201804211610ae357604435111561154d576301e133804201804211610ae35760443510156114f857825180151590816114ec575b50156114b057600760ff8216116114785761117160035461250e565b91826003558260005260066020526040600020838155845167ffffffffffffffff8111610acd576111a56001830154612251565b601f8111611431575b50806020601f82116001146113c4576000916113b9575b508160011b916000199060031b1c19161760018201555b815167ffffffffffffffff8111610acd576111fa6002830154612251565b601f8111611372575b509484916020968794601f82116001146112e0577f4ee85832e33882aa936ec752c359dd377254716eac2c4e34a0342b3f515c97ea949582916000926112d5575b50508160011b916000199060031b1c19161760028201555b60038101336bffffffffffffffffffffffff60a01b8254161790554260048201556044356005820155600d600682019160ff199260ff8816848254161790550190815416905560ff6112b960405192606084526060840190612330565b94604435888401521660408201528033940390a3604051908152f35b015190508980611244565b60028301600052886000209060005b601f19841681106113585750907f4ee85832e33882aa936ec752c359dd377254716eac2c4e34a0342b3f515c97ea95968392600194601f1981161061133f575b505050811b01600282015561125c565b015160001960f88460031b161c1916905589808061132f565b818801518355968a01968996506001909201918a016112ef565b600283016000526020600020601f830160051c8101602084106113b2575b601f830160051c820181106113a6575050611203565b60008155600101611390565b5080611390565b9050860151876111c5565b91506001830160005260206000206000925b601f1983168410611419576001935082601f19811610611400575b5050811b0160018201556111dc565b88015160001960f88460031b161c1916905587806113f1565b888101518255602093840193600190920191016113d6565b600183016000526020600020601f830160051c810160208410611471575b601f830160051c820181106114655750506111ae565b6000815560010161144f565b508061144f565b60405162461bcd60e51b815260206004820152601060248201526f496e76616c69642063617465676f727960801b6044820152606490fd5b60405162461bcd60e51b8152602060048201526014602482015273092dcecc2d8d2c840e8d2e8d8ca40d8cadccee8d60631b6044820152606490fd5b60c89150111584611155565b60405162461bcd60e51b815260206004820152602760248201527f43616e6e6f7420657870697265206d6f7265207468616e203120796561722066604482015266726f6d206e6f7760c81b6064820152608490fd5b60405162461bcd60e51b8152602060048201526024808201527f4d75737420657870697265206174206c65617374203120686f75722066726f6d604482015263206e6f7760e01b6064820152608490fd5b346101b35760003660031901126101b3576020604051670de0b6b3a76400008152f35b346101b35760003660031901126101b3576000546040516001600160a01b039091168152602090f35b346101b35760403660031901126101b357611603612161565b6000606060405161161381612177565b8281528260208201528260408201520152600435600052600760205260406000209060018060a01b03166000526020526080604060002060405161165681612177565b815491828252600181015460208301908152606060ff600360028501549460408701958652015416930192151583526040519384525160208401525160408301525115156060820152f35b346101b35760203660031901126101b3576116ba61214b565b6116c2612616565b600480546001600160a01b0319166001600160a01b0392909216919091179055005b346101b35760003660031901126101b3576116fd612616565b611705612665565b600160ff1960025416176002557f62e78cea01bee320cd4e420270b5ea74000d11b0c9f74754ebdbfc544b05a2586020604051338152a1005b346101b3576020806003193601126101b35760043590816000526006815261176c604060002054151561238c565b600082815260068252604090206003810154336001600160a01b0391821614908115611872575b501561183557600d81019182549160ff8316906004821015610559576117bb600792156124ce565b01546117f2575060ff191660031790557f2ca440fb7fca85d7f55d395a4abd94817330b83a62f3502efbb4770144e4ca97600080a2005b6064906040519062461bcd60e51b825280600483015260248201527f43616e6e6f742063616e63656c20776974682072657665616c656420626574736044820152fd5b60405162461bcd60e51b815260048101839052601560248201527427b7363c9031b932b0ba37b91037b91037bbb732b960591b6044820152606490fd5b905060005416331484611793565b346101b35760003660031901126101b357611899612616565b600080546001600160a01b0319811682556001600160a01b03167f8be0079c531659141344cd1fd0a4f28419497f9722a3daafe3b4186f6b6457e08280a3005b60403660031901126101b3576004356024908135916118f6612665565b6118fe612642565b8160005260209060068252611919604060002054151561238c565b826000526006825260ff600d60406000200154166004811015611b1a5761194090156124ce565b8260005260068252600560406000200154421015611ae65766038d7ea4c680003410611ab55768056bc75e2d631000003411611a835782600052600782526040600020336000528252604060002054611a4c57506119fc6040516119a381612177565b8481526003838201348152604083014281526060840191600083528760005260078752604060002033600052875260406000209451855551600185015551600284015551151591019060ff801983541691151516179055565b81600052600a81526040600020611a13815461250e565b905560405192835234908301527fc02f2358fe181cc846163d0ca2cd612408cef67a7acdbb92cd09045df0e2fd9a60403393a360018055005b9060116064926040519262461bcd60e51b8452600484015282015270105b1c9958591e4818dbdb5b5a5d1d1959607a1b6044820152fd5b90600c6064926040519262461bcd60e51b845260048401528201526b084cae840e8dede40d0d2ced60a31b6044820152fd5b90600b6064926040519262461bcd60e51b845260048401528201526a42657420746f6f206c6f7760a81b6044820152fd5b90600e6064926040519262461bcd60e51b845260048401528201526d13585c9ad95d08195e1c1a5c995960921b6044820152fd5b50634e487b7160e01b60009081526021600452fd5b346101b3576020806003193601126101b357600435611b4c612642565b8060005260068252611b64604060002054151561238c565b8060005260068252604060002091600d8301549260ff8416600481101561055957600203611df957826000526008825260406000203360005282526040600020600381015415611dc557600581019182549560ff8716611d8e5760ff80600185015460a01c169160081c169081151590151503611d575715611d4c57600a810154915b8215611d1357611c0a929160076002611c059301549101549061248e565b6124a1565b90600a8202828104600a1483151715610ae357611c2d60646001920480946124c1565b9560ff1916179055600080808087335af1611c4661245e565b5015611cdc576004546000918291829182916001600160a01b03165af1611c6b61245e565b5015611ca2577f5380cf6fe903b40c6d5a9e0dfbca2f3a423f0a21520b4d5947ed5169bdba946d906040519384523393a360018055005b6064906040519062461bcd60e51b825260048201526013602482015272119959481d1c985b9cd9995c8819985a5b1959606a1b6044820152fd5b60405162461bcd60e51b815260048101839052600f60248201526e151c985b9cd9995c8819985a5b1959608a1b6044820152606490fd5b60405162461bcd60e51b81526004810186905260116024820152704e6f2077696e6e696e672073686172657360781b6044820152606490fd5b600b81015491611be7565b60405162461bcd60e51b815260048101869052600f60248201526e2132ba103234b2103737ba103bb4b760891b6044820152606490fd5b60405162461bcd60e51b815260048101869052600f60248201526e105b1c9958591e4818db185a5b5959608a1b6044820152606490fd5b60405162461bcd60e51b815260048101849052600c60248201526b139bc818995d08199bdd5b9960a21b6044820152606490fd5b60405162461bcd60e51b815260048101839052601360248201527213585c9ad95d081b9bdd081c995cdbdb1d9959606a1b6044820152606490fd5b346101b35760003660031901126101b357602060405166038d7ea4c680008152f35b346101b35760003660031901126101b357602060ff600254166040519015158152f35b346101b3576020806003193601126101b357600435611e96612642565b8060005260068252611eae604060002054151561238c565b8060005260068252604060002060ff600d820154169060048210156105595760038214918215611fb0575b505015611f7357600052600781526040600020336000528152600080808060408120611f07815415156123dd565b60038101600180825493611f1e60ff86161561241f565b01549260ff1916179055335af1611f3361245e565b5015611f3f5760018055005b6064906040519062461bcd60e51b82526004820152600d60248201526c1499599d5b990819985a5b1959609a1b6044820152fd5b60405162461bcd60e51b8152600481018390526015602482015274526566756e6473206e6f7420617661696c61626c6560581b6044820152606490fd5b600114915081611fc3575b508380611ed9565b600591500154610e108101809111610ae357421183611fbb565b346101b35760003660031901126101b3576020604051600a8152f35b346101b35760003660031901126101b3576004546040516001600160a01b039091168152602090f35b346101b35760003660031901126101b35761203b612616565b60025460ff81161561207a5760ff19166002557f5db9ee0a495bf2e6ff9c91a7834c1ba4fdd244a5e8aa4e537bd38aeae4b073aa6020604051338152a1005b604051638dfc202b60e01b8152600490fd5b346101b35760403660031901126101b3576024356004356000526009602052604060002080548210156101b3576020916120c59161211d565b905460405160039290921b1c6001600160a01b03168152f35b346101b35760003660031901126101b357602060405168056bc75e2d631000008152f35b346101b35760003660031901126101b35780610e1060209252f35b80548210156121355760005260206000200190600090565b634e487b7160e01b600052603260045260246000fd5b600435906001600160a01b03821682036101b357565b602435906001600160a01b03821682036101b357565b6080810190811067ffffffffffffffff821117610acd57604052565b60e0810190811067ffffffffffffffff821117610acd57604052565b610200810190811067ffffffffffffffff821117610acd57604052565b90601f8019910116810190811067ffffffffffffffff821117610acd57604052565b67ffffffffffffffff8111610acd57601f01601f191660200190565b81601f820112156101b357803590612221826121ee565b9261222f60405194856121cc565b828452602083830101116101b357816000926020809301838601378301015290565b90600182811c92168015612281575b602083101461226b57565b634e487b7160e01b600052602260045260246000fd5b91607f1691612260565b9060405191826000825461229e81612251565b9081845260209460019160018116908160001461230e57506001146122cf575b5050506122cd925003836121cc565b565b600090815285812095935091905b8183106122f65750506122cd93508201013880806122be565b855488840185015294850194879450918301916122dd565b925050506122cd94925060ff191682840152151560051b8201013880806122be565b919082519283825260005b84811061235c575050826000602080949584010152601f8019910116010190565b60208183018101518483018201520161233b565b9060048210156105595752565b6024359081151582036101b357565b1561239357565b60405162461bcd60e51b815260206004820152601560248201527413585c9ad95d08191bd95cc81b9bdd08195e1a5cdd605a1b6044820152606490fd5b91908201809211610ae357565b156123e457565b60405162461bcd60e51b8152602060048201526013602482015272139bc818dbdb5b5a5d1b595b9d08199bdd5b99606a1b6044820152606490fd5b1561242657565b60405162461bcd60e51b815260206004820152601060248201526f105b1c9958591e481c995d99585b195960821b6044820152606490fd5b3d15612489573d9061246f826121ee565b9161247d60405193846121cc565b82523d6000602084013e565b606090565b81810292918115918404141715610ae357565b81156124ab570490565b634e487b7160e01b600052601260045260246000fd5b91908203918211610ae357565b156124d557565b60405162461bcd60e51b81526020600482015260116024820152704d61726b6574206e6f742061637469766560781b6044820152606490fd5b6000198114610ae35760010190565b906000918252600660205260408220906008602052604083209060018060a01b0316835260205260408220600d82015460ff81166004811015612602576002148015906125e3575b6125d25760081c60ff16156125d857600a820154905b81156125d2576125989260076002611c059301549101549061248e565b90600a820290828204600a14831517156125be57509060646125bb9204906124c1565b90565b634e487b7160e01b81526011600452602490fd5b50505090565b600b8201549061257b565b5060ff600183015460a01c1660ff8260081c1615159015151415612565565b634e487b7160e01b85526021600452602485fd5b6000546001600160a01b0316330361262a57565b60405163118cdaa760e01b8152336004820152602490fd5b600260015414612653576002600155565b604051633ee5aeb560e01b8152600490fd5b60ff6002541661267157565b60405163d93c066560e01b8152600490fdfea26469706673582212200869446888f5df694f1526e67f9123bd9576c5b073ebb00acdb0cc283db750eb64736f6c63430008180033","opcodes":"PUSH1 0x80 CALLVALUE PUSH3 0xF0 JUMPI PUSH1 0x1F PUSH3 0x27DA CODESIZE DUP2 SWAP1 SUB SWAP2 DUP3 ADD PUSH1 0x1F NOT AND DUP4 ADD SWAP2 PUSH1 0x1 PUSH1 0x1 PUSH1 0x40 SHL SUB DUP4 GT DUP5 DUP5 LT OR PUSH3 0xF5 JUMPI DUP1 DUP5 SWAP3 PUSH1 0x40 SWAP5 DUP6 MSTORE DUP4 CODECOPY DUP2 ADD SUB SLT PUSH3 0xF0 JUMPI PUSH3 0x5A PUSH1 0x20 PUSH3 0x52 DUP4 PUSH3 0x10B JUMP JUMPDEST SWAP3 ADD PUSH3 0x10B JUMP JUMPDEST SWAP1 CALLER ISZERO PUSH3 0xD7 JUMPI PUSH1 0x0 SLOAD SWAP2 PUSH1 0x1 DUP1 PUSH1 0xA0 SHL SUB SWAP1 DUP2 PUSH1 0x1 DUP1 PUSH1 0xA0 SHL SUB NOT SWAP4 CALLER DUP6 DUP8 AND OR PUSH1 0x0 SSTORE PUSH1 0x40 MLOAD SWAP6 DUP3 CALLER SWAP2 AND PUSH32 0x8BE0079C531659141344CD1FD0A4F28419497F9722A3DAAFE3B4186F6B6457E0 PUSH1 0x0 DUP1 LOG3 PUSH1 0x1 DUP1 SSTORE AND DUP4 PUSH1 0x4 SLOAD AND OR PUSH1 0x4 SSTORE AND SWAP1 PUSH1 0x5 SLOAD AND OR PUSH1 0x5 SSTORE PUSH1 0x0 PUSH1 0x3 SSTORE PUSH2 0x26B9 SWAP1 DUP2 PUSH3 0x121 DUP3 CODECOPY RETURN JUMPDEST PUSH1 0x40 MLOAD PUSH4 0x1E4FBDF7 PUSH1 0xE0 SHL DUP2 MSTORE PUSH1 0x0 PUSH1 0x4 DUP3 ADD MSTORE PUSH1 0x24 SWAP1 REVERT JUMPDEST PUSH1 0x0 DUP1 REVERT JUMPDEST PUSH4 0x4E487B71 PUSH1 0xE0 SHL PUSH1 0x0 MSTORE PUSH1 0x41 PUSH1 0x4 MSTORE PUSH1 0x24 PUSH1 0x0 REVERT JUMPDEST MLOAD SWAP1 PUSH1 0x1 PUSH1 0x1 PUSH1 0xA0 SHL SUB DUP3 AND DUP3 SUB PUSH3 0xF0 JUMPI JUMP INVALID PUSH1 0x80 DUP1 PUSH1 0x40 MSTORE PUSH1 0x4 CALLDATASIZE LT ISZERO PUSH2 0x13 JUMPI PUSH1 0x0 DUP1 REVERT JUMPDEST PUSH1 0x0 CALLDATALOAD PUSH1 0xE0 SHR SWAP1 DUP2 PUSH4 0x4ABCA54 EQ PUSH2 0x2102 JUMPI POP DUP1 PUSH4 0x309167F5 EQ PUSH2 0x20DE JUMPI DUP1 PUSH4 0x399567B9 EQ PUSH2 0x208C JUMPI DUP1 PUSH4 0x3F4BA83A EQ PUSH2 0x2022 JUMPI DUP1 PUSH4 0x430BF08A EQ PUSH2 0x1FF9 JUMPI DUP1 PUSH4 0x560D52D4 EQ PUSH2 0x1FDD JUMPI DUP1 PUSH4 0x5B7BAF64 EQ PUSH2 0x1E79 JUMPI DUP1 PUSH4 0x5C975ABB EQ PUSH2 0x1E56 JUMPI DUP1 PUSH4 0x6475E3D3 EQ PUSH2 0x1E34 JUMPI DUP1 PUSH4 0x677BD9FF EQ PUSH2 0x1B2F JUMPI DUP1 PUSH4 0x6D1C789F EQ PUSH2 0x195 JUMPI DUP1 PUSH4 0x70822FD7 EQ PUSH2 0x18D9 JUMPI DUP1 PUSH4 0x715018A6 EQ PUSH2 0x1880 JUMPI DUP1 PUSH4 0x7C16CD9E EQ PUSH2 0x173E JUMPI DUP1 PUSH4 0x8456CB59 EQ PUSH2 0x16E4 JUMPI DUP1 PUSH4 0x85535CC5 EQ PUSH2 0x16A1 JUMPI DUP1 PUSH4 0x89FB2682 EQ PUSH2 0x15EA JUMPI DUP1 PUSH4 0x8DA5CB5B EQ PUSH2 0x15C1 JUMPI DUP1 PUSH4 0x95082D25 EQ PUSH2 0x159E JUMPI DUP1 PUSH4 0xB0307A61 EQ PUSH2 0x10B7 JUMPI DUP1 PUSH4 0xB08C7FAC EQ PUSH2 0x108B JUMPI DUP1 PUSH4 0xB1283E77 EQ PUSH2 0xF5C JUMPI DUP1 PUSH4 0xB1DB5BEC EQ PUSH2 0xF33 JUMPI DUP1 PUSH4 0xB726BE7F EQ PUSH2 0xF05 JUMPI DUP1 PUSH4 0xBAAA80BB EQ PUSH2 0xC15 JUMPI DUP1 PUSH4 0xC4EBECF2 EQ PUSH2 0x7A7 JUMPI DUP1 PUSH4 0xDB2E21BC EQ PUSH2 0x72E JUMPI DUP1 PUSH4 0xDD28218B EQ PUSH2 0x6EB JUMPI DUP1 PUSH4 0xE0950DDF EQ PUSH2 0x5DE JUMPI DUP1 PUSH4 0xE90D4C06 EQ PUSH2 0x56F JUMPI DUP1 PUSH4 0xEB44FDD3 EQ PUSH2 0x2D9 JUMPI DUP1 PUSH4 0xF2FDE38B EQ PUSH2 0x24B JUMPI DUP1 PUSH4 0xF644B3BB EQ PUSH2 0x1B8 JUMPI PUSH4 0xFD69F3C2 EQ PUSH2 0x195 JUMPI PUSH1 0x0 DUP1 REVERT JUMPDEST CALLVALUE PUSH2 0x1B3 JUMPI PUSH1 0x0 CALLDATASIZE PUSH1 0x3 NOT ADD SLT PUSH2 0x1B3 JUMPI PUSH1 0x20 PUSH1 0x3 SLOAD PUSH1 0x40 MLOAD SWAP1 DUP2 MSTORE RETURN JUMPDEST PUSH1 0x0 DUP1 REVERT JUMPDEST CALLVALUE PUSH2 0x1B3 JUMPI PUSH1 0x40 CALLDATASIZE PUSH1 0x3 NOT ADD SLT PUSH2 0x1B3 JUMPI PUSH1 0xE0 PUSH2 0x1D3 PUSH2 0x2161 JUMP JUMPDEST PUSH1 0x4 CALLDATALOAD PUSH1 0x0 MSTORE PUSH1 0x8 PUSH1 0x20 MSTORE PUSH1 0x40 PUSH1 0x0 KECCAK256 PUSH1 0x1 DUP1 PUSH1 0xA0 SHL SUB DUP1 SWAP3 AND PUSH1 0x0 MSTORE PUSH1 0x20 MSTORE PUSH1 0x40 PUSH1 0x0 KECCAK256 SWAP1 DUP2 SLOAD SWAP2 PUSH1 0x1 DUP2 ADD SLOAD PUSH1 0x2 DUP3 ADD SLOAD PUSH1 0xFF PUSH1 0x3 DUP5 ADD SLOAD SWAP3 DUP2 PUSH1 0x5 PUSH1 0x4 DUP8 ADD SLOAD SWAP7 ADD SLOAD AND SWAP6 PUSH1 0x40 MLOAD SWAP8 DUP9 MSTORE DUP2 AND PUSH1 0x20 DUP9 ADD MSTORE PUSH1 0xA0 SHR AND ISZERO ISZERO PUSH1 0x40 DUP7 ADD MSTORE PUSH1 0x60 DUP6 ADD MSTORE PUSH1 0x80 DUP5 ADD MSTORE PUSH1 0xA0 DUP4 ADD MSTORE ISZERO ISZERO PUSH1 0xC0 DUP3 ADD MSTORE RETURN JUMPDEST CALLVALUE PUSH2 0x1B3 JUMPI PUSH1 0x20 CALLDATASIZE PUSH1 0x3 NOT ADD SLT PUSH2 0x1B3 JUMPI PUSH2 0x264 PUSH2 0x214B JUMP JUMPDEST PUSH2 0x26C PUSH2 0x2616 JUMP JUMPDEST PUSH1 0x1 PUSH1 0x1 PUSH1 0xA0 SHL SUB SWAP1 DUP2 AND SWAP1 DUP2 ISZERO PUSH2 0x2C0 JUMPI PUSH1 0x0 SLOAD DUP3 PUSH12 0xFFFFFFFFFFFFFFFFFFFFFFFF PUSH1 0xA0 SHL DUP3 AND OR PUSH1 0x0 SSTORE AND PUSH32 0x8BE0079C531659141344CD1FD0A4F28419497F9722A3DAAFE3B4186F6B6457E0 PUSH1 0x0 DUP1 LOG3 STOP JUMPDEST PUSH1 0x40 MLOAD PUSH4 0x1E4FBDF7 PUSH1 0xE0 SHL DUP2 MSTORE PUSH1 0x0 PUSH1 0x4 DUP3 ADD MSTORE PUSH1 0x24 SWAP1 REVERT JUMPDEST CALLVALUE PUSH2 0x1B3 JUMPI PUSH1 0x20 CALLDATASIZE PUSH1 0x3 NOT ADD SLT PUSH2 0x1B3 JUMPI PUSH1 0x60 PUSH2 0x1E0 PUSH1 0x40 MLOAD PUSH2 0x2FB DUP2 PUSH2 0x21AF JUMP JUMPDEST PUSH1 0x0 DUP2 MSTORE DUP3 PUSH1 0x20 DUP3 ADD MSTORE DUP3 PUSH1 0x40 DUP3 ADD MSTORE PUSH1 0x0 DUP4 DUP3 ADD MSTORE PUSH1 0x0 PUSH1 0x80 DUP3 ADD MSTORE PUSH1 0x0 PUSH1 0xA0 DUP3 ADD MSTORE PUSH1 0x0 PUSH1 0xC0 DUP3 ADD MSTORE PUSH1 0x0 PUSH1 0xE0 DUP3 ADD MSTORE PUSH1 0x0 PUSH2 0x100 DUP3 ADD MSTORE PUSH1 0x0 PUSH2 0x120 DUP3 ADD MSTORE PUSH1 0x0 PUSH2 0x140 DUP3 ADD MSTORE PUSH1 0x0 PUSH2 0x160 DUP3 ADD MSTORE PUSH1 0x0 PUSH2 0x180 DUP3 ADD MSTORE PUSH1 0x0 PUSH2 0x1A0 DUP3 ADD MSTORE PUSH1 0x0 PUSH2 0x1C0 DUP3 ADD MSTORE ADD MSTORE PUSH1 0x4 CALLDATALOAD PUSH1 0x0 MSTORE PUSH1 0x6 PUSH1 0x20 MSTORE PUSH1 0x40 PUSH1 0x0 KECCAK256 PUSH1 0x40 MLOAD PUSH2 0x383 DUP2 PUSH2 0x21AF JUMP JUMPDEST DUP2 SLOAD DUP2 MSTORE PUSH2 0x393 PUSH1 0x1 DUP4 ADD PUSH2 0x228B JUMP JUMPDEST PUSH1 0x20 DUP3 ADD MSTORE PUSH2 0x3A4 PUSH1 0x2 DUP4 ADD PUSH2 0x228B JUMP JUMPDEST PUSH1 0x40 DUP3 ADD MSTORE PUSH1 0x3 DUP3 ADD SLOAD PUSH1 0x1 PUSH1 0x1 PUSH1 0xA0 SHL SUB AND PUSH1 0x60 DUP3 ADD MSTORE PUSH1 0x4 DUP1 DUP4 ADD SLOAD PUSH1 0x80 DUP4 ADD MSTORE PUSH1 0x5 DUP4 ADD SLOAD PUSH1 0xA0 DUP4 ADD MSTORE PUSH1 0x6 DUP4 ADD SLOAD PUSH1 0xFF SWAP1 DUP2 AND PUSH1 0xC0 DUP5 ADD MSTORE PUSH1 0x7 DUP5 ADD SLOAD PUSH1 0xE0 DUP5 ADD MSTORE PUSH1 0x8 DUP5 ADD SLOAD PUSH2 0x100 DUP5 ADD MSTORE PUSH1 0x9 DUP5 ADD SLOAD PUSH2 0x120 DUP5 ADD MSTORE PUSH1 0xA DUP5 ADD SLOAD PUSH2 0x140 DUP5 ADD MSTORE PUSH1 0xB DUP5 ADD SLOAD PUSH2 0x160 DUP5 ADD MSTORE PUSH1 0xC DUP5 ADD SLOAD PUSH2 0x180 DUP5 ADD MSTORE PUSH1 0xD DUP5 ADD SLOAD SWAP4 SWAP2 SWAP1 DUP5 AND LT ISZERO PUSH2 0x559 JUMPI PUSH1 0xE PUSH2 0x458 SWAP2 PUSH1 0xFF DUP6 DUP2 PUSH2 0x555 SWAP8 AND PUSH2 0x1A0 DUP8 ADD MSTORE PUSH1 0x8 SHR AND ISZERO ISZERO PUSH2 0x1C0 DUP6 ADD MSTORE ADD PUSH2 0x228B JUMP JUMPDEST PUSH2 0x1E0 DUP3 ADD MSTORE PUSH1 0x40 MLOAD SWAP2 DUP3 SWAP2 PUSH1 0x20 DUP4 MSTORE DUP1 MLOAD PUSH1 0x20 DUP5 ADD MSTORE PUSH2 0x1E0 PUSH2 0x4A6 PUSH2 0x490 PUSH1 0x20 DUP5 ADD MLOAD PUSH2 0x200 PUSH1 0x40 DUP9 ADD MSTORE PUSH2 0x220 DUP8 ADD SWAP1 PUSH2 0x2330 JUMP JUMPDEST PUSH1 0x40 DUP5 ADD MLOAD DUP7 DUP3 SUB PUSH1 0x1F NOT ADD PUSH1 0x60 DUP9 ADD MSTORE PUSH2 0x2330 JUMP JUMPDEST SWAP2 PUSH1 0x1 DUP1 PUSH1 0xA0 SHL SUB PUSH1 0x60 DUP3 ADD MLOAD AND PUSH1 0x80 DUP7 ADD MSTORE PUSH1 0x80 DUP2 ADD MLOAD PUSH1 0xA0 DUP7 ADD MSTORE PUSH1 0xA0 DUP2 ADD MLOAD PUSH1 0xC0 DUP7 ADD MSTORE PUSH1 0xFF PUSH1 0xC0 DUP3 ADD MLOAD AND PUSH1 0xE0 DUP7 ADD MSTORE PUSH1 0xE0 DUP2 ADD MLOAD PUSH2 0x100 DUP7 ADD MSTORE PUSH2 0x100 DUP2 ADD MLOAD PUSH2 0x120 DUP7 ADD MSTORE PUSH2 0x120 DUP2 ADD MLOAD PUSH2 0x140 DUP7 ADD MSTORE PUSH2 0x140 DUP2 ADD MLOAD PUSH2 0x160 DUP7 ADD MSTORE PUSH2 0x160 DUP2 ADD MLOAD PUSH2 0x180 DUP7 ADD MSTORE PUSH2 0x180 DUP2 ADD MLOAD PUSH2 0x1A0 DUP7 ADD MSTORE PUSH2 0x535 PUSH2 0x1A0 DUP3 ADD MLOAD PUSH2 0x1C0 DUP8 ADD SWAP1 PUSH2 0x2370 JUMP JUMPDEST PUSH2 0x1C0 DUP2 ADD MLOAD ISZERO ISZERO DUP6 DUP4 ADD MSTORE ADD MLOAD DUP4 DUP3 SUB PUSH1 0x1F NOT ADD PUSH2 0x200 DUP6 ADD MSTORE PUSH2 0x2330 JUMP JUMPDEST SUB SWAP1 RETURN JUMPDEST PUSH4 0x4E487B71 PUSH1 0xE0 SHL PUSH1 0x0 MSTORE PUSH1 0x21 PUSH1 0x4 MSTORE PUSH1 0x24 PUSH1 0x0 REVERT JUMPDEST CALLVALUE PUSH2 0x1B3 JUMPI PUSH1 0x40 CALLDATASIZE PUSH1 0x3 NOT ADD SLT PUSH2 0x1B3 JUMPI PUSH2 0x588 PUSH2 0x2161 JUMP JUMPDEST PUSH1 0x4 CALLDATALOAD PUSH1 0x0 MSTORE PUSH1 0x7 PUSH1 0x20 MSTORE PUSH1 0x40 PUSH1 0x0 KECCAK256 SWAP1 PUSH1 0x1 DUP1 PUSH1 0xA0 SHL SUB AND PUSH1 0x0 MSTORE PUSH1 0x20 MSTORE PUSH1 0x80 PUSH1 0x40 PUSH1 0x0 KECCAK256 DUP1 SLOAD SWAP1 PUSH1 0x1 DUP2 ADD SLOAD SWAP1 PUSH1 0xFF PUSH1 0x3 PUSH1 0x2 DUP4 ADD SLOAD SWAP3 ADD SLOAD AND SWAP2 PUSH1 0x40 MLOAD SWAP4 DUP5 MSTORE PUSH1 0x20 DUP5 ADD MSTORE PUSH1 0x40 DUP4 ADD MSTORE ISZERO ISZERO PUSH1 0x60 DUP3 ADD MSTORE RETURN JUMPDEST CALLVALUE PUSH2 0x1B3 JUMPI PUSH1 0x40 CALLDATASIZE PUSH1 0x3 NOT ADD SLT PUSH2 0x1B3 JUMPI PUSH1 0xE0 PUSH2 0x5F9 PUSH2 0x2161 JUMP JUMPDEST PUSH1 0x0 PUSH1 0xC0 PUSH1 0x40 MLOAD PUSH2 0x609 DUP2 PUSH2 0x2193 JUMP JUMPDEST DUP3 DUP2 MSTORE DUP3 PUSH1 0x20 DUP3 ADD MSTORE DUP3 PUSH1 0x40 DUP3 ADD MSTORE DUP3 PUSH1 0x60 DUP3 ADD MSTORE DUP3 PUSH1 0x80 DUP3 ADD MSTORE DUP3 PUSH1 0xA0 DUP3 ADD MSTORE ADD MSTORE PUSH1 0x4 CALLDATALOAD PUSH1 0x0 MSTORE PUSH1 0x8 PUSH1 0x20 MSTORE PUSH1 0x40 PUSH1 0x0 KECCAK256 PUSH1 0x1 DUP1 PUSH1 0xA0 SHL SUB DUP1 SWAP3 AND PUSH1 0x0 MSTORE PUSH1 0x20 MSTORE PUSH1 0x40 PUSH1 0x0 KECCAK256 PUSH1 0x40 MLOAD SWAP1 PUSH2 0x65E DUP3 PUSH2 0x2193 JUMP JUMPDEST DUP1 SLOAD SWAP3 DUP4 DUP4 MSTORE PUSH1 0x1 DUP3 ADD SLOAD SWAP1 PUSH1 0x20 DUP5 ADD SWAP2 DUP2 DUP2 AND DUP4 MSTORE PUSH1 0xFF PUSH1 0x40 DUP7 ADD SWAP2 PUSH1 0xA0 SHR AND ISZERO ISZERO DUP2 MSTORE PUSH1 0x2 DUP5 ADD SLOAD SWAP2 PUSH1 0x60 DUP7 ADD SWAP3 DUP4 MSTORE PUSH1 0x3 DUP6 ADD SLOAD SWAP4 PUSH1 0x80 DUP8 ADD SWAP5 DUP6 MSTORE PUSH1 0xC0 PUSH1 0xFF PUSH1 0x5 PUSH1 0x4 DUP10 ADD SLOAD SWAP9 PUSH1 0xA0 DUP12 ADD SWAP10 DUP11 MSTORE ADD SLOAD AND SWAP8 ADD SWAP7 ISZERO ISZERO DUP8 MSTORE PUSH1 0x40 MLOAD SWAP8 DUP9 MSTORE MLOAD AND PUSH1 0x20 DUP8 ADD MSTORE MLOAD ISZERO ISZERO PUSH1 0x40 DUP7 ADD MSTORE MLOAD PUSH1 0x60 DUP6 ADD MSTORE MLOAD PUSH1 0x80 DUP5 ADD MSTORE MLOAD PUSH1 0xA0 DUP4 ADD MSTORE MLOAD ISZERO ISZERO PUSH1 0xC0 DUP3 ADD MSTORE RETURN JUMPDEST CALLVALUE PUSH2 0x1B3 JUMPI PUSH1 0x20 CALLDATASIZE PUSH1 0x3 NOT ADD SLT PUSH2 0x1B3 JUMPI PUSH2 0x704 PUSH2 0x214B JUMP JUMPDEST PUSH2 0x70C PUSH2 0x2616 JUMP JUMPDEST PUSH1 0x5 DUP1 SLOAD PUSH1 0x1 PUSH1 0x1 PUSH1 0xA0 SHL SUB NOT AND PUSH1 0x1 PUSH1 0x1 PUSH1 0xA0 SHL SUB SWAP3 SWAP1 SWAP3 AND SWAP2 SWAP1 SWAP2 OR SWAP1 SSTORE STOP JUMPDEST CALLVALUE PUSH2 0x1B3 JUMPI PUSH1 0x0 CALLDATASIZE PUSH1 0x3 NOT ADD SLT PUSH2 0x1B3 JUMPI PUSH2 0x747 PUSH2 0x2616 JUMP JUMPDEST PUSH1 0x0 DUP1 SLOAD DUP2 SWAP1 DUP2 SWAP1 DUP2 SWAP1 SELFBALANCE SWAP1 PUSH1 0x1 PUSH1 0x1 PUSH1 0xA0 SHL SUB AND GAS CALL PUSH2 0x766 PUSH2 0x245E JUMP JUMPDEST POP ISZERO PUSH2 0x76E JUMPI STOP JUMPDEST PUSH1 0x40 MLOAD PUSH3 0x461BCD PUSH1 0xE5 SHL DUP2 MSTORE PUSH1 0x20 PUSH1 0x4 DUP3 ADD MSTORE PUSH1 0x11 PUSH1 0x24 DUP3 ADD MSTORE PUSH17 0x15DA5D1A191C985DD85B0819985A5B1959 PUSH1 0x7A SHL PUSH1 0x44 DUP3 ADD MSTORE PUSH1 0x64 SWAP1 REVERT JUMPDEST CALLVALUE PUSH2 0x1B3 JUMPI PUSH1 0x60 CALLDATASIZE PUSH1 0x3 NOT ADD SLT PUSH2 0x1B3 JUMPI PUSH2 0x7C0 PUSH2 0x237D JUMP JUMPDEST PUSH2 0x7C8 PUSH2 0x2642 JUMP JUMPDEST PUSH1 0x4 CALLDATALOAD PUSH1 0x0 MSTORE PUSH1 0x6 PUSH1 0x20 MSTORE PUSH2 0x7E3 PUSH1 0x40 PUSH1 0x0 KECCAK256 SLOAD ISZERO ISZERO PUSH2 0x238C JUMP JUMPDEST PUSH1 0x4 CALLDATALOAD PUSH1 0x0 MSTORE PUSH1 0x6 PUSH1 0x20 MSTORE PUSH1 0x40 PUSH1 0x0 KECCAK256 PUSH1 0xFF PUSH1 0xD DUP3 ADD SLOAD AND PUSH1 0x4 DUP2 LT ISZERO PUSH2 0x559 JUMPI DUP1 ISZERO SWAP1 DUP2 ISZERO PUSH2 0xC0A JUMPI JUMPDEST POP ISZERO PUSH2 0xBC5 JUMPI PUSH1 0x4 CALLDATALOAD PUSH1 0x0 MSTORE PUSH1 0x7 PUSH1 0x20 MSTORE PUSH1 0x40 PUSH1 0x0 KECCAK256 CALLER PUSH1 0x0 MSTORE PUSH1 0x20 MSTORE PUSH1 0x40 PUSH1 0x0 KECCAK256 DUP1 SLOAD PUSH2 0x83D DUP2 ISZERO ISZERO PUSH2 0x23DD JUMP JUMPDEST PUSH2 0x84E PUSH1 0xFF PUSH1 0x3 DUP5 ADD SLOAD AND ISZERO PUSH2 0x241F JUMP JUMPDEST PUSH1 0x40 MLOAD PUSH1 0x20 DUP2 ADD SWAP2 DUP6 ISZERO ISZERO PUSH1 0xF8 SHL DUP4 MSTORE PUSH1 0x44 CALLDATALOAD PUSH1 0x21 DUP4 ADD MSTORE CALLER PUSH1 0x60 SHL PUSH1 0x41 DUP4 ADD MSTORE PUSH1 0x35 DUP3 MSTORE PUSH1 0x60 DUP3 ADD SWAP3 DUP3 DUP5 LT PUSH8 0xFFFFFFFFFFFFFFFF DUP6 GT OR PUSH2 0xACD JUMPI DUP4 PUSH1 0x40 MSTORE DUP3 MLOAD SWAP1 KECCAK256 SUB PUSH2 0xB93 JUMPI POP POP PUSH1 0x1 DUP2 ADD SLOAD SWAP1 PUSH1 0xA DUP4 ADD SLOAD DUP1 ISZERO DUP1 PUSH2 0xB87 JUMPI JUMPDEST ISZERO PUSH2 0xB20 JUMPI POP PUSH8 0xDE0B6B3A7640000 DUP1 DUP4 MUL SWAP1 DUP4 DUP3 DIV EQ DUP4 ISZERO OR ISZERO PUSH2 0xAE3 JUMPI PUSH7 0x2386F26FC10000 SWAP1 DIV SWAP3 JUMPDEST PUSH1 0x7 DUP2 ADD PUSH2 0x8E7 DUP5 DUP3 SLOAD PUSH2 0x23D0 JUMP JUMPDEST SWAP1 SSTORE DUP5 ISZERO PUSH2 0xAF9 JUMPI PUSH1 0x8 DUP2 ADD PUSH2 0x8FE DUP5 DUP3 SLOAD PUSH2 0x23D0 JUMP JUMPDEST SWAP1 SSTORE PUSH2 0x90E DUP5 PUSH1 0xA DUP4 ADD SLOAD PUSH2 0x23D0 JUMP JUMPDEST PUSH1 0xA DUP3 ADD SSTORE JUMPDEST PUSH1 0x40 MLOAD SWAP2 PUSH2 0x921 DUP4 PUSH2 0x2193 JUMP JUMPDEST PUSH1 0x4 CALLDATALOAD DUP4 MSTORE PUSH2 0x9D8 PUSH1 0x20 DUP5 ADD SWAP4 CALLER DUP6 MSTORE PUSH1 0x5 PUSH1 0x40 DUP3 ADD DUP10 ISZERO ISZERO DUP2 MSTORE PUSH1 0x60 DUP4 ADD DUP10 DUP2 MSTORE PUSH1 0x80 DUP5 ADD DUP10 DUP2 MSTORE PUSH1 0xA0 DUP6 ADD SWAP2 TIMESTAMP DUP4 MSTORE PUSH1 0xC0 DUP7 ADD SWAP4 PUSH1 0x0 DUP6 MSTORE PUSH1 0x4 CALLDATALOAD PUSH1 0x0 MSTORE PUSH1 0x8 PUSH1 0x20 MSTORE PUSH1 0x40 PUSH1 0x0 KECCAK256 CALLER PUSH1 0x0 MSTORE PUSH1 0x20 MSTORE PUSH1 0x40 PUSH1 0x0 KECCAK256 SWAP7 MLOAD DUP8 SSTORE PUSH1 0x1 DUP8 ADD SWAP1 PUSH1 0x1 DUP1 PUSH1 0xA0 SHL SUB DUP1 SWAP13 MLOAD AND DUP3 SLOAD SWAP2 PUSH1 0xFF PUSH1 0xA0 SHL SWAP1 MLOAD ISZERO ISZERO PUSH1 0xA0 SHL AND SWAP2 PUSH11 0xFFFFFFFFFFFFFFFFFFFFFF PUSH1 0xA8 SHL AND OR OR SWAP1 SSTORE MLOAD PUSH1 0x2 DUP7 ADD SSTORE MLOAD PUSH1 0x3 DUP6 ADD SSTORE MLOAD PUSH1 0x4 DUP5 ADD SSTORE MLOAD ISZERO ISZERO SWAP2 ADD SWAP1 PUSH1 0xFF DUP1 NOT DUP4 SLOAD AND SWAP2 ISZERO ISZERO AND OR SWAP1 SSTORE JUMP JUMPDEST PUSH1 0x3 ADD DUP1 SLOAD PUSH1 0xFF NOT AND PUSH1 0x1 OR SWAP1 SSTORE PUSH1 0x4 CALLDATALOAD PUSH1 0x0 SWAP1 DUP2 MSTORE PUSH1 0xA PUSH1 0x20 MSTORE PUSH1 0x40 SWAP1 KECCAK256 DUP1 SLOAD DUP1 ISZERO PUSH2 0xAE3 JUMPI PUSH1 0x0 NOT ADD SWAP1 SSTORE PUSH1 0x4 CALLDATALOAD PUSH1 0x0 MSTORE PUSH1 0x8 PUSH1 0x20 MSTORE PUSH1 0x40 PUSH1 0x0 KECCAK256 CALLER PUSH1 0x0 MSTORE PUSH1 0x20 MSTORE PUSH1 0x3 PUSH1 0x40 PUSH1 0x0 KECCAK256 ADD SLOAD ISZERO PUSH2 0xA6F JUMPI JUMPDEST POP POP PUSH1 0x40 MLOAD SWAP3 ISZERO ISZERO DUP4 MSTORE PUSH1 0x20 DUP4 ADD MSTORE PUSH1 0x40 DUP3 ADD MSTORE CALLER SWAP1 PUSH32 0x403919DF18953314F70218B572F014AF7A4BBED7A7E4E84CD46D195F4A0112FD PUSH1 0x60 PUSH1 0x4 CALLDATALOAD SWAP3 LOG3 PUSH1 0x1 DUP1 SSTORE STOP JUMPDEST PUSH1 0x4 CALLDATALOAD PUSH1 0x0 MSTORE PUSH1 0x9 PUSH1 0x20 MSTORE PUSH1 0x40 PUSH1 0x0 KECCAK256 SWAP2 DUP3 SLOAD SWAP3 PUSH9 0x10000000000000000 DUP5 LT ISZERO PUSH2 0xACD JUMPI DUP4 PUSH2 0xAA6 SWAP2 PUSH1 0x1 PUSH1 0xC SWAP7 ADD DUP2 SSTORE PUSH2 0x211D JUMP JUMPDEST DUP2 SWAP3 SWAP2 SLOAD SWAP1 PUSH1 0x3 SHL SWAP2 CALLER DUP4 SHL SWAP3 SHL NOT AND OR SWAP1 SSTORE ADD PUSH2 0xAC4 DUP2 SLOAD PUSH2 0x250E JUMP JUMPDEST SWAP1 SSTORE DUP4 DUP1 PUSH2 0xA2B JUMP JUMPDEST PUSH4 0x4E487B71 PUSH1 0xE0 SHL PUSH1 0x0 MSTORE PUSH1 0x41 PUSH1 0x4 MSTORE PUSH1 0x24 PUSH1 0x0 REVERT JUMPDEST PUSH4 0x4E487B71 PUSH1 0xE0 SHL PUSH1 0x0 MSTORE PUSH1 0x11 PUSH1 0x4 MSTORE PUSH1 0x24 PUSH1 0x0 REVERT JUMPDEST PUSH1 0x9 DUP2 ADD PUSH2 0xB08 DUP5 DUP3 SLOAD PUSH2 0x23D0 JUMP JUMPDEST SWAP1 SSTORE PUSH1 0xB DUP2 ADD PUSH2 0xB19 DUP6 DUP3 SLOAD PUSH2 0x23D0 JUMP JUMPDEST SWAP1 SSTORE PUSH2 0x914 JUMP JUMPDEST PUSH1 0xB DUP5 ADD SLOAD PUSH2 0xB2E SWAP2 PUSH2 0x23D0 JUMP JUMPDEST DUP5 ISZERO PUSH2 0xB7D JUMPI PUSH1 0x8 DUP5 ADD SLOAD JUMPDEST PUSH8 0xDE0B6B3A7640000 SWAP2 DUP3 DUP3 MUL SWAP2 DUP1 DUP4 DIV DUP5 EQ SWAP1 ISZERO OR ISZERO PUSH2 0xAE3 JUMPI PUSH2 0xB5E SWAP2 PUSH2 0x24A1 JUMP JUMPDEST DUP2 DUP5 MUL SWAP2 DUP5 DUP4 DIV EQ DUP5 ISZERO OR ISZERO PUSH2 0xAE3 JUMPI PUSH2 0xB77 SWAP2 PUSH2 0x24A1 JUMP JUMPDEST SWAP3 PUSH2 0x8D8 JUMP JUMPDEST PUSH1 0x9 DUP5 ADD SLOAD PUSH2 0xB3A JUMP JUMPDEST POP PUSH1 0xB DUP5 ADD SLOAD ISZERO PUSH2 0x8AD JUMP JUMPDEST SWAP1 PUSH14 0x125B9D985B1A59081C995D99585B PUSH1 0x92 SHL PUSH1 0xA4 PUSH1 0x64 SWAP4 PUSH3 0x461BCD PUSH1 0xE5 SHL DUP5 MSTORE PUSH1 0x20 DUP6 DUP3 ADD MSTORE PUSH1 0xE PUSH1 0x84 DUP3 ADD MSTORE ADD MSTORE REVERT JUMPDEST PUSH1 0x40 MLOAD PUSH3 0x461BCD PUSH1 0xE5 SHL DUP2 MSTORE PUSH1 0x20 PUSH1 0x4 DUP3 ADD MSTORE PUSH1 0x1B PUSH1 0x24 DUP3 ADD MSTORE PUSH32 0x43616E6E6F742072657665616C20696E20746869732073746174650000000000 PUSH1 0x44 DUP3 ADD MSTORE PUSH1 0x64 SWAP1 REVERT JUMPDEST PUSH1 0x1 SWAP2 POP EQ DUP4 PUSH2 0x80E JUMP JUMPDEST CALLVALUE PUSH2 0x1B3 JUMPI PUSH1 0x60 CALLDATASIZE PUSH1 0x3 NOT ADD SLT PUSH2 0x1B3 JUMPI PUSH1 0x4 CALLDATALOAD PUSH2 0xC31 PUSH2 0x237D JUMP JUMPDEST PUSH8 0xFFFFFFFFFFFFFFFF SWAP2 SWAP1 PUSH1 0x44 CALLDATALOAD DUP4 DUP2 GT PUSH2 0x1B3 JUMPI PUSH2 0xC54 SWAP1 CALLDATASIZE SWAP1 PUSH1 0x4 ADD PUSH2 0x220A JUMP JUMPDEST PUSH1 0x5 SLOAD SWAP1 SWAP2 SWAP1 PUSH1 0x1 PUSH1 0x1 PUSH1 0xA0 SHL SUB AND CALLER SUB PUSH2 0xED0 JUMPI DUP3 PUSH1 0x0 MSTORE PUSH1 0x20 SWAP2 PUSH1 0x6 DUP4 MSTORE PUSH2 0xC84 PUSH1 0x40 PUSH1 0x0 KECCAK256 SLOAD ISZERO ISZERO PUSH2 0x238C JUMP JUMPDEST DUP4 PUSH1 0x0 MSTORE PUSH1 0x6 DUP4 MSTORE PUSH1 0x40 PUSH1 0x0 KECCAK256 PUSH1 0xD DUP2 ADD DUP1 SLOAD SWAP4 PUSH1 0xFF DUP6 AND PUSH1 0x4 DUP2 LT ISZERO PUSH2 0x559 JUMPI DUP1 ISZERO SWAP1 DUP2 ISZERO PUSH2 0xEC5 JUMPI JUMPDEST POP ISZERO PUSH2 0xE80 JUMPI PUSH1 0x5 DUP4 ADD SLOAD TIMESTAMP LT PUSH2 0xE42 JUMPI SWAP1 PUSH1 0x2 PUSH1 0xE SWAP4 SWAP3 ISZERO ISZERO SWAP6 PUSH2 0xFF00 DUP8 PUSH1 0x8 SHL AND SWAP1 PUSH2 0xFFFF NOT AND OR OR SWAP1 SSTORE ADD DUP2 MLOAD SWAP6 DUP7 GT PUSH2 0xACD JUMPI PUSH2 0xCF0 DUP2 SLOAD PUSH2 0x2251 JUMP JUMPDEST PUSH1 0x1F DUP2 GT PUSH2 0xDFC JUMPI JUMPDEST POP DUP4 SWAP6 PUSH1 0x1F DUP2 GT PUSH1 0x1 EQ PUSH2 0xD73 JUMPI SWAP1 DUP2 PUSH2 0xD63 SWAP4 SWAP3 PUSH32 0x42A997D59F6B8F3A77A30DD8EDCD073271DA93DE0C005B0DE8557108641BBB5B SWAP8 SWAP9 PUSH1 0x0 SWAP2 PUSH2 0xD68 JUMPI JUMPDEST POP DUP2 PUSH1 0x1 SHL SWAP2 PUSH1 0x0 NOT SWAP1 PUSH1 0x3 SHL SHR NOT AND OR SWAP1 SSTORE JUMPDEST PUSH1 0x40 DUP1 MLOAD SWAP5 DUP6 SWAP5 DUP6 MSTORE DUP5 ADD MSTORE PUSH1 0x40 DUP4 ADD SWAP1 PUSH2 0x2330 JUMP JUMPDEST SUB SWAP1 LOG2 STOP JUMPDEST SWAP1 POP DUP4 ADD MLOAD DUP10 PUSH2 0xD39 JUMP JUMPDEST PUSH1 0x1F NOT DUP2 AND DUP3 PUSH1 0x0 MSTORE DUP6 PUSH1 0x0 KECCAK256 SWAP1 PUSH1 0x0 JUMPDEST DUP2 DUP2 LT PUSH2 0xDE5 JUMPI POP SWAP2 PUSH1 0x1 SWAP2 PUSH32 0x42A997D59F6B8F3A77A30DD8EDCD073271DA93DE0C005B0DE8557108641BBB5B SWAP9 SWAP10 DUP3 PUSH2 0xD63 SWAP8 SWAP7 SWAP6 LT PUSH2 0xDCC JUMPI JUMPDEST POP POP DUP2 SHL ADD SWAP1 SSTORE PUSH2 0xD4D JUMP JUMPDEST DUP6 ADD MLOAD PUSH1 0x0 NOT PUSH1 0xF8 DUP5 PUSH1 0x3 SHL AND SHR NOT AND SWAP1 SSTORE DUP10 DUP1 PUSH2 0xDC0 JUMP JUMPDEST DUP6 DUP11 ADD MLOAD DUP4 SSTORE SWAP9 DUP8 ADD SWAP9 PUSH1 0x1 SWAP1 SWAP3 ADD SWAP2 DUP8 ADD PUSH2 0xD84 JUMP JUMPDEST DUP2 PUSH1 0x0 MSTORE DUP5 PUSH1 0x0 KECCAK256 PUSH1 0x1F DUP9 ADD PUSH1 0x5 SHR DUP2 ADD SWAP2 DUP7 DUP10 LT PUSH2 0xE38 JUMPI JUMPDEST PUSH1 0x1F ADD PUSH1 0x5 SHR ADD SWAP1 JUMPDEST DUP2 DUP2 LT PUSH2 0xE2C JUMPI POP PUSH2 0xCF9 JUMP JUMPDEST PUSH1 0x0 DUP2 SSTORE PUSH1 0x1 ADD PUSH2 0xE1F JUMP JUMPDEST SWAP1 SWAP2 POP DUP2 SWAP1 PUSH2 0xE16 JUMP JUMPDEST PUSH1 0x40 MLOAD PUSH3 0x461BCD PUSH1 0xE5 SHL DUP2 MSTORE PUSH1 0x4 DUP2 ADD DUP8 SWAP1 MSTORE PUSH1 0x16 PUSH1 0x24 DUP3 ADD MSTORE PUSH22 0x13585C9AD95D081B9BDD08195E1C1A5C9959081E595D PUSH1 0x52 SHL PUSH1 0x44 DUP3 ADD MSTORE PUSH1 0x64 SWAP1 REVERT JUMPDEST PUSH1 0x40 MLOAD PUSH3 0x461BCD PUSH1 0xE5 SHL DUP2 MSTORE PUSH1 0x4 DUP2 ADD DUP8 SWAP1 MSTORE PUSH1 0x1B PUSH1 0x24 DUP3 ADD MSTORE PUSH32 0x4D61726B6574206E6F7420696E20636F72726563742073746174650000000000 PUSH1 0x44 DUP3 ADD MSTORE PUSH1 0x64 SWAP1 REVERT JUMPDEST PUSH1 0x1 SWAP2 POP EQ DUP10 PUSH2 0xCAF JUMP JUMPDEST PUSH1 0x40 MLOAD PUSH3 0x461BCD PUSH1 0xE5 SHL DUP2 MSTORE PUSH1 0x20 PUSH1 0x4 DUP3 ADD MSTORE PUSH1 0xD PUSH1 0x24 DUP3 ADD MSTORE PUSH13 0x27B7363C903932B9B7B63B32B9 PUSH1 0x99 SHL PUSH1 0x44 DUP3 ADD MSTORE PUSH1 0x64 SWAP1 REVERT JUMPDEST CALLVALUE PUSH2 0x1B3 JUMPI PUSH1 0x40 CALLDATASIZE PUSH1 0x3 NOT ADD SLT PUSH2 0x1B3 JUMPI PUSH1 0x20 PUSH2 0xF2B PUSH2 0xF23 PUSH2 0x2161 JUMP JUMPDEST PUSH1 0x4 CALLDATALOAD PUSH2 0x251D JUMP JUMPDEST PUSH1 0x40 MLOAD SWAP1 DUP2 MSTORE RETURN JUMPDEST CALLVALUE PUSH2 0x1B3 JUMPI PUSH1 0x0 CALLDATASIZE PUSH1 0x3 NOT ADD SLT PUSH2 0x1B3 JUMPI PUSH1 0x5 SLOAD PUSH1 0x40 MLOAD PUSH1 0x1 PUSH1 0x1 PUSH1 0xA0 SHL SUB SWAP1 SWAP2 AND DUP2 MSTORE PUSH1 0x20 SWAP1 RETURN JUMPDEST CALLVALUE PUSH2 0x1B3 JUMPI PUSH1 0x20 CALLDATASIZE PUSH1 0x3 NOT ADD SLT PUSH2 0x1B3 JUMPI PUSH1 0x4 CALLDATALOAD PUSH1 0x0 MSTORE PUSH1 0x6 PUSH1 0x20 MSTORE PUSH1 0x40 PUSH1 0x0 KECCAK256 DUP1 SLOAD SWAP1 PUSH1 0x1 DUP2 ADD PUSH2 0xF8D SWAP1 PUSH2 0x228B JUMP JUMPDEST SWAP1 PUSH2 0xF9A PUSH1 0x2 DUP3 ADD PUSH2 0x228B JUMP JUMPDEST SWAP3 PUSH1 0x1 PUSH1 0xA0 SHL PUSH1 0x1 SWAP1 SUB PUSH1 0x3 DUP4 ADD SLOAD AND SWAP2 PUSH1 0x4 DUP2 ADD SLOAD PUSH1 0x5 DUP3 ADD SLOAD PUSH1 0x6 DUP4 ADD SLOAD PUSH1 0xFF AND PUSH1 0x7 DUP5 ADD SLOAD PUSH1 0x8 DUP6 ADD SLOAD PUSH1 0x9 DUP7 ADD SLOAD SWAP2 PUSH1 0xA DUP8 ADD SLOAD SWAP4 PUSH1 0xB DUP9 ADD SLOAD SWAP6 PUSH1 0xC DUP10 ADD SLOAD SWAP8 PUSH1 0xD DUP11 ADD SLOAD SWAP10 PUSH1 0xE ADD PUSH2 0xFF1 SWAP1 PUSH2 0x228B JUMP JUMPDEST SWAP12 PUSH1 0x40 MLOAD SWAP15 DUP16 SWAP15 DUP16 SWAP14 DUP15 PUSH2 0x200 SWAP2 DUP2 MSTORE DUP2 PUSH1 0x20 DUP3 ADD MSTORE ADD PUSH2 0x1011 SWAP2 PUSH2 0x2330 JUMP JUMPDEST DUP14 DUP2 SUB PUSH1 0x40 DUP16 ADD MSTORE PUSH2 0x1022 SWAP2 PUSH2 0x2330 JUMP JUMPDEST PUSH1 0x60 SWAP1 SWAP13 ADD MSTORE PUSH1 0x80 DUP14 ADD MSTORE PUSH1 0xA0 DUP13 ADD MSTORE PUSH1 0xC0 DUP12 ADD MSTORE PUSH1 0xE0 DUP11 ADD MSTORE PUSH2 0x100 DUP10 ADD MSTORE PUSH2 0x120 DUP9 ADD MSTORE PUSH2 0x140 DUP8 ADD MSTORE PUSH2 0x160 DUP7 ADD MSTORE PUSH2 0x180 DUP6 ADD MSTORE PUSH2 0x106B PUSH2 0x1A0 DUP6 ADD PUSH1 0xFF DUP4 AND PUSH2 0x2370 JUMP JUMPDEST PUSH1 0x8 SHR PUSH1 0xFF AND ISZERO ISZERO PUSH2 0x1C0 DUP5 ADD MSTORE DUP3 DUP2 SUB PUSH2 0x1E0 DUP5 ADD MSTORE PUSH2 0x555 SWAP2 PUSH2 0x2330 JUMP JUMPDEST CALLVALUE PUSH2 0x1B3 JUMPI PUSH1 0x20 CALLDATASIZE PUSH1 0x3 NOT ADD SLT PUSH2 0x1B3 JUMPI PUSH1 0x4 CALLDATALOAD PUSH1 0x0 MSTORE PUSH1 0xA PUSH1 0x20 MSTORE PUSH1 0x20 PUSH1 0x40 PUSH1 0x0 KECCAK256 SLOAD PUSH1 0x40 MLOAD SWAP1 DUP2 MSTORE RETURN JUMPDEST CALLVALUE PUSH2 0x1B3 JUMPI PUSH1 0x80 CALLDATASIZE PUSH1 0x3 NOT ADD SLT PUSH2 0x1B3 JUMPI PUSH1 0x4 CALLDATALOAD PUSH8 0xFFFFFFFFFFFFFFFF DUP2 GT PUSH2 0x1B3 JUMPI PUSH2 0x10E8 SWAP1 CALLDATASIZE SWAP1 PUSH1 0x4 ADD PUSH2 0x220A JUMP JUMPDEST PUSH1 0x24 CALLDATALOAD PUSH8 0xFFFFFFFFFFFFFFFF DUP2 GT PUSH2 0x1B3 JUMPI PUSH2 0x1108 SWAP1 CALLDATASIZE SWAP1 PUSH1 0x4 ADD PUSH2 0x220A JUMP JUMPDEST PUSH1 0x64 CALLDATALOAD PUSH1 0xFF DUP2 AND DUP2 SUB PUSH2 0x1B3 JUMPI PUSH2 0x111D PUSH2 0x2665 JUMP JUMPDEST PUSH2 0xE10 TIMESTAMP ADD DUP1 TIMESTAMP GT PUSH2 0xAE3 JUMPI PUSH1 0x44 CALLDATALOAD GT ISZERO PUSH2 0x154D JUMPI PUSH4 0x1E13380 TIMESTAMP ADD DUP1 TIMESTAMP GT PUSH2 0xAE3 JUMPI PUSH1 0x44 CALLDATALOAD LT ISZERO PUSH2 0x14F8 JUMPI DUP3 MLOAD DUP1 ISZERO ISZERO SWAP1 DUP2 PUSH2 0x14EC JUMPI JUMPDEST POP ISZERO PUSH2 0x14B0 JUMPI PUSH1 0x7 PUSH1 0xFF DUP3 AND GT PUSH2 0x1478 JUMPI PUSH2 0x1171 PUSH1 0x3 SLOAD PUSH2 0x250E JUMP JUMPDEST SWAP2 DUP3 PUSH1 0x3 SSTORE DUP3 PUSH1 0x0 MSTORE PUSH1 0x6 PUSH1 0x20 MSTORE PUSH1 0x40 PUSH1 0x0 KECCAK256 DUP4 DUP2 SSTORE DUP5 MLOAD PUSH8 0xFFFFFFFFFFFFFFFF DUP2 GT PUSH2 0xACD JUMPI PUSH2 0x11A5 PUSH1 0x1 DUP4 ADD SLOAD PUSH2 0x2251 JUMP JUMPDEST PUSH1 0x1F DUP2 GT PUSH2 0x1431 JUMPI JUMPDEST POP DUP1 PUSH1 0x20 PUSH1 0x1F DUP3 GT PUSH1 0x1 EQ PUSH2 0x13C4 JUMPI PUSH1 0x0 SWAP2 PUSH2 0x13B9 JUMPI JUMPDEST POP DUP2 PUSH1 0x1 SHL SWAP2 PUSH1 0x0 NOT SWAP1 PUSH1 0x3 SHL SHR NOT AND OR PUSH1 0x1 DUP3 ADD SSTORE JUMPDEST DUP2 MLOAD PUSH8 0xFFFFFFFFFFFFFFFF DUP2 GT PUSH2 0xACD JUMPI PUSH2 0x11FA PUSH1 0x2 DUP4 ADD SLOAD PUSH2 0x2251 JUMP JUMPDEST PUSH1 0x1F DUP2 GT PUSH2 0x1372 JUMPI JUMPDEST POP SWAP5 DUP5 SWAP2 PUSH1 0x20 SWAP7 DUP8 SWAP5 PUSH1 0x1F DUP3 GT PUSH1 0x1 EQ PUSH2 0x12E0 JUMPI PUSH32 0x4EE85832E33882AA936EC752C359DD377254716EAC2C4E34A0342B3F515C97EA SWAP5 SWAP6 DUP3 SWAP2 PUSH1 0x0 SWAP3 PUSH2 0x12D5 JUMPI JUMPDEST POP POP DUP2 PUSH1 0x1 SHL SWAP2 PUSH1 0x0 NOT SWAP1 PUSH1 0x3 SHL SHR NOT AND OR PUSH1 0x2 DUP3 ADD SSTORE JUMPDEST PUSH1 0x3 DUP2 ADD CALLER PUSH12 0xFFFFFFFFFFFFFFFFFFFFFFFF PUSH1 0xA0 SHL DUP3 SLOAD AND OR SWAP1 SSTORE TIMESTAMP PUSH1 0x4 DUP3 ADD SSTORE PUSH1 0x44 CALLDATALOAD PUSH1 0x5 DUP3 ADD SSTORE PUSH1 0xD PUSH1 0x6 DUP3 ADD SWAP2 PUSH1 0xFF NOT SWAP3 PUSH1 0xFF DUP9 AND DUP5 DUP3 SLOAD AND OR SWAP1 SSTORE ADD SWAP1 DUP2 SLOAD AND SWAP1 SSTORE PUSH1 0xFF PUSH2 0x12B9 PUSH1 0x40 MLOAD SWAP3 PUSH1 0x60 DUP5 MSTORE PUSH1 0x60 DUP5 ADD SWAP1 PUSH2 0x2330 JUMP JUMPDEST SWAP5 PUSH1 0x44 CALLDATALOAD DUP9 DUP5 ADD MSTORE AND PUSH1 0x40 DUP3 ADD MSTORE DUP1 CALLER SWAP5 SUB SWAP1 LOG3 PUSH1 0x40 MLOAD SWAP1 DUP2 MSTORE RETURN JUMPDEST ADD MLOAD SWAP1 POP DUP10 DUP1 PUSH2 0x1244 JUMP JUMPDEST PUSH1 0x2 DUP4 ADD PUSH1 0x0 MSTORE DUP9 PUSH1 0x0 KECCAK256 SWAP1 PUSH1 0x0 JUMPDEST PUSH1 0x1F NOT DUP5 AND DUP2 LT PUSH2 0x1358 JUMPI POP SWAP1 PUSH32 0x4EE85832E33882AA936EC752C359DD377254716EAC2C4E34A0342B3F515C97EA SWAP6 SWAP7 DUP4 SWAP3 PUSH1 0x1 SWAP5 PUSH1 0x1F NOT DUP2 AND LT PUSH2 0x133F JUMPI JUMPDEST POP POP POP DUP2 SHL ADD PUSH1 0x2 DUP3 ADD SSTORE PUSH2 0x125C JUMP JUMPDEST ADD MLOAD PUSH1 0x0 NOT PUSH1 0xF8 DUP5 PUSH1 0x3 SHL AND SHR NOT AND SWAP1 SSTORE DUP10 DUP1 DUP1 PUSH2 0x132F JUMP JUMPDEST DUP2 DUP9 ADD MLOAD DUP4 SSTORE SWAP7 DUP11 ADD SWAP7 DUP10 SWAP7 POP PUSH1 0x1 SWAP1 SWAP3 ADD SWAP2 DUP11 ADD PUSH2 0x12EF JUMP JUMPDEST PUSH1 0x2 DUP4 ADD PUSH1 0x0 MSTORE PUSH1 0x20 PUSH1 0x0 KECCAK256 PUSH1 0x1F DUP4 ADD PUSH1 0x5 SHR DUP2 ADD PUSH1 0x20 DUP5 LT PUSH2 0x13B2 JUMPI JUMPDEST PUSH1 0x1F DUP4 ADD PUSH1 0x5 SHR DUP3 ADD DUP2 LT PUSH2 0x13A6 JUMPI POP POP PUSH2 0x1203 JUMP JUMPDEST PUSH1 0x0 DUP2 SSTORE PUSH1 0x1 ADD PUSH2 0x1390 JUMP JUMPDEST POP DUP1 PUSH2 0x1390 JUMP JUMPDEST SWAP1 POP DUP7 ADD MLOAD DUP8 PUSH2 0x11C5 JUMP JUMPDEST SWAP2 POP PUSH1 0x1 DUP4 ADD PUSH1 0x0 MSTORE PUSH1 0x20 PUSH1 0x0 KECCAK256 PUSH1 0x0 SWAP3 JUMPDEST PUSH1 0x1F NOT DUP4 AND DUP5 LT PUSH2 0x1419 JUMPI PUSH1 0x1 SWAP4 POP DUP3 PUSH1 0x1F NOT DUP2 AND LT PUSH2 0x1400 JUMPI JUMPDEST POP POP DUP2 SHL ADD PUSH1 0x1 DUP3 ADD SSTORE PUSH2 0x11DC JUMP JUMPDEST DUP9 ADD MLOAD PUSH1 0x0 NOT PUSH1 0xF8 DUP5 PUSH1 0x3 SHL AND SHR NOT AND SWAP1 SSTORE DUP8 DUP1 PUSH2 0x13F1 JUMP JUMPDEST DUP9 DUP2 ADD MLOAD DUP3 SSTORE PUSH1 0x20 SWAP4 DUP5 ADD SWAP4 PUSH1 0x1 SWAP1 SWAP3 ADD SWAP2 ADD PUSH2 0x13D6 JUMP JUMPDEST PUSH1 0x1 DUP4 ADD PUSH1 0x0 MSTORE PUSH1 0x20 PUSH1 0x0 KECCAK256 PUSH1 0x1F DUP4 ADD PUSH1 0x5 SHR DUP2 ADD PUSH1 0x20 DUP5 LT PUSH2 0x1471 JUMPI JUMPDEST PUSH1 0x1F DUP4 ADD PUSH1 0x5 SHR DUP3 ADD DUP2 LT PUSH2 0x1465 JUMPI POP POP PUSH2 0x11AE JUMP JUMPDEST PUSH1 0x0 DUP2 SSTORE PUSH1 0x1 ADD PUSH2 0x144F JUMP JUMPDEST POP DUP1 PUSH2 0x144F JUMP JUMPDEST PUSH1 0x40 MLOAD PUSH3 0x461BCD PUSH1 0xE5 SHL DUP2 MSTORE PUSH1 0x20 PUSH1 0x4 DUP3 ADD MSTORE PUSH1 0x10 PUSH1 0x24 DUP3 ADD MSTORE PUSH16 0x496E76616C69642063617465676F7279 PUSH1 0x80 SHL PUSH1 0x44 DUP3 ADD MSTORE PUSH1 0x64 SWAP1 REVERT JUMPDEST PUSH1 0x40 MLOAD PUSH3 0x461BCD PUSH1 0xE5 SHL DUP2 MSTORE PUSH1 0x20 PUSH1 0x4 DUP3 ADD MSTORE PUSH1 0x14 PUSH1 0x24 DUP3 ADD MSTORE PUSH20 0x92DCECC2D8D2C840E8D2E8D8CA40D8CADCCEE8D PUSH1 0x63 SHL PUSH1 0x44 DUP3 ADD MSTORE PUSH1 0x64 SWAP1 REVERT JUMPDEST PUSH1 0xC8 SWAP2 POP GT ISZERO DUP5 PUSH2 0x1155 JUMP JUMPDEST PUSH1 0x40 MLOAD PUSH3 0x461BCD PUSH1 0xE5 SHL DUP2 MSTORE PUSH1 0x20 PUSH1 0x4 DUP3 ADD MSTORE PUSH1 0x27 PUSH1 0x24 DUP3 ADD MSTORE PUSH32 0x43616E6E6F7420657870697265206D6F7265207468616E203120796561722066 PUSH1 0x44 DUP3 ADD MSTORE PUSH7 0x726F6D206E6F77 PUSH1 0xC8 SHL PUSH1 0x64 DUP3 ADD MSTORE PUSH1 0x84 SWAP1 REVERT JUMPDEST PUSH1 0x40 MLOAD PUSH3 0x461BCD PUSH1 0xE5 SHL DUP2 MSTORE PUSH1 0x20 PUSH1 0x4 DUP3 ADD MSTORE PUSH1 0x24 DUP1 DUP3 ADD MSTORE PUSH32 0x4D75737420657870697265206174206C65617374203120686F75722066726F6D PUSH1 0x44 DUP3 ADD MSTORE PUSH4 0x206E6F77 PUSH1 0xE0 SHL PUSH1 0x64 DUP3 ADD MSTORE PUSH1 0x84 SWAP1 REVERT JUMPDEST CALLVALUE PUSH2 0x1B3 JUMPI PUSH1 0x0 CALLDATASIZE PUSH1 0x3 NOT ADD SLT PUSH2 0x1B3 JUMPI PUSH1 0x20 PUSH1 0x40 MLOAD PUSH8 0xDE0B6B3A7640000 DUP2 MSTORE RETURN JUMPDEST CALLVALUE PUSH2 0x1B3 JUMPI PUSH1 0x0 CALLDATASIZE PUSH1 0x3 NOT ADD SLT PUSH2 0x1B3 JUMPI PUSH1 0x0 SLOAD PUSH1 0x40 MLOAD PUSH1 0x1 PUSH1 0x1 PUSH1 0xA0 SHL SUB SWAP1 SWAP2 AND DUP2 MSTORE PUSH1 0x20 SWAP1 RETURN JUMPDEST CALLVALUE PUSH2 0x1B3 JUMPI PUSH1 0x40 CALLDATASIZE PUSH1 0x3 NOT ADD SLT PUSH2 0x1B3 JUMPI PUSH2 0x1603 PUSH2 0x2161 JUMP JUMPDEST PUSH1 0x0 PUSH1 0x60 PUSH1 0x40 MLOAD PUSH2 0x1613 DUP2 PUSH2 0x2177 JUMP JUMPDEST DUP3 DUP2 MSTORE DUP3 PUSH1 0x20 DUP3 ADD MSTORE DUP3 PUSH1 0x40 DUP3 ADD MSTORE ADD MSTORE PUSH1 0x4 CALLDATALOAD PUSH1 0x0 MSTORE PUSH1 0x7 PUSH1 0x20 MSTORE PUSH1 0x40 PUSH1 0x0 KECCAK256 SWAP1 PUSH1 0x1 DUP1 PUSH1 0xA0 SHL SUB AND PUSH1 0x0 MSTORE PUSH1 0x20 MSTORE PUSH1 0x80 PUSH1 0x40 PUSH1 0x0 KECCAK256 PUSH1 0x40 MLOAD PUSH2 0x1656 DUP2 PUSH2 0x2177 JUMP JUMPDEST DUP2 SLOAD SWAP2 DUP3 DUP3 MSTORE PUSH1 0x1 DUP2 ADD SLOAD PUSH1 0x20 DUP4 ADD SWAP1 DUP2 MSTORE PUSH1 0x60 PUSH1 0xFF PUSH1 0x3 PUSH1 0x2 DUP6 ADD SLOAD SWAP5 PUSH1 0x40 DUP8 ADD SWAP6 DUP7 MSTORE ADD SLOAD AND SWAP4 ADD SWAP3 ISZERO ISZERO DUP4 MSTORE PUSH1 0x40 MLOAD SWAP4 DUP5 MSTORE MLOAD PUSH1 0x20 DUP5 ADD MSTORE MLOAD PUSH1 0x40 DUP4 ADD MSTORE MLOAD ISZERO ISZERO PUSH1 0x60 DUP3 ADD MSTORE RETURN JUMPDEST CALLVALUE PUSH2 0x1B3 JUMPI PUSH1 0x20 CALLDATASIZE PUSH1 0x3 NOT ADD SLT PUSH2 0x1B3 JUMPI PUSH2 0x16BA PUSH2 0x214B JUMP JUMPDEST PUSH2 0x16C2 PUSH2 0x2616 JUMP JUMPDEST PUSH1 0x4 DUP1 SLOAD PUSH1 0x1 PUSH1 0x1 PUSH1 0xA0 SHL SUB NOT AND PUSH1 0x1 PUSH1 0x1 PUSH1 0xA0 SHL SUB SWAP3 SWAP1 SWAP3 AND SWAP2 SWAP1 SWAP2 OR SWAP1 SSTORE STOP JUMPDEST CALLVALUE PUSH2 0x1B3 JUMPI PUSH1 0x0 CALLDATASIZE PUSH1 0x3 NOT ADD SLT PUSH2 0x1B3 JUMPI PUSH2 0x16FD PUSH2 0x2616 JUMP JUMPDEST PUSH2 0x1705 PUSH2 0x2665 JUMP JUMPDEST PUSH1 0x1 PUSH1 0xFF NOT PUSH1 0x2 SLOAD AND OR PUSH1 0x2 SSTORE PUSH32 0x62E78CEA01BEE320CD4E420270B5EA74000D11B0C9F74754EBDBFC544B05A258 PUSH1 0x20 PUSH1 0x40 MLOAD CALLER DUP2 MSTORE LOG1 STOP JUMPDEST CALLVALUE PUSH2 0x1B3 JUMPI PUSH1 0x20 DUP1 PUSH1 0x3 NOT CALLDATASIZE ADD SLT PUSH2 0x1B3 JUMPI PUSH1 0x4 CALLDATALOAD SWAP1 DUP2 PUSH1 0x0 MSTORE PUSH1 0x6 DUP2 MSTORE PUSH2 0x176C PUSH1 0x40 PUSH1 0x0 KECCAK256 SLOAD ISZERO ISZERO PUSH2 0x238C JUMP JUMPDEST PUSH1 0x0 DUP3 DUP2 MSTORE PUSH1 0x6 DUP3 MSTORE PUSH1 0x40 SWAP1 KECCAK256 PUSH1 0x3 DUP2 ADD SLOAD CALLER PUSH1 0x1 PUSH1 0x1 PUSH1 0xA0 SHL SUB SWAP2 DUP3 AND EQ SWAP1 DUP2 ISZERO PUSH2 0x1872 JUMPI JUMPDEST POP ISZERO PUSH2 0x1835 JUMPI PUSH1 0xD DUP2 ADD SWAP2 DUP3 SLOAD SWAP2 PUSH1 0xFF DUP4 AND SWAP1 PUSH1 0x4 DUP3 LT ISZERO PUSH2 0x559 JUMPI PUSH2 0x17BB PUSH1 0x7 SWAP3 ISZERO PUSH2 0x24CE JUMP JUMPDEST ADD SLOAD PUSH2 0x17F2 JUMPI POP PUSH1 0xFF NOT AND PUSH1 0x3 OR SWAP1 SSTORE PUSH32 0x2CA440FB7FCA85D7F55D395A4ABD94817330B83A62F3502EFBB4770144E4CA97 PUSH1 0x0 DUP1 LOG2 STOP JUMPDEST PUSH1 0x64 SWAP1 PUSH1 0x40 MLOAD SWAP1 PUSH3 0x461BCD PUSH1 0xE5 SHL DUP3 MSTORE DUP1 PUSH1 0x4 DUP4 ADD MSTORE PUSH1 0x24 DUP3 ADD MSTORE PUSH32 0x43616E6E6F742063616E63656C20776974682072657665616C65642062657473 PUSH1 0x44 DUP3 ADD MSTORE REVERT JUMPDEST PUSH1 0x40 MLOAD PUSH3 0x461BCD PUSH1 0xE5 SHL DUP2 MSTORE PUSH1 0x4 DUP2 ADD DUP4 SWAP1 MSTORE PUSH1 0x15 PUSH1 0x24 DUP3 ADD MSTORE PUSH21 0x27B7363C9031B932B0BA37B91037B91037BBB732B9 PUSH1 0x59 SHL PUSH1 0x44 DUP3 ADD MSTORE PUSH1 0x64 SWAP1 REVERT JUMPDEST SWAP1 POP PUSH1 0x0 SLOAD AND CALLER EQ DUP5 PUSH2 0x1793 JUMP JUMPDEST CALLVALUE PUSH2 0x1B3 JUMPI PUSH1 0x0 CALLDATASIZE PUSH1 0x3 NOT ADD SLT PUSH2 0x1B3 JUMPI PUSH2 0x1899 PUSH2 0x2616 JUMP JUMPDEST PUSH1 0x0 DUP1 SLOAD PUSH1 0x1 PUSH1 0x1 PUSH1 0xA0 SHL SUB NOT DUP2 AND DUP3 SSTORE PUSH1 0x1 PUSH1 0x1 PUSH1 0xA0 SHL SUB AND PUSH32 0x8BE0079C531659141344CD1FD0A4F28419497F9722A3DAAFE3B4186F6B6457E0 DUP3 DUP1 LOG3 STOP JUMPDEST PUSH1 0x40 CALLDATASIZE PUSH1 0x3 NOT ADD SLT PUSH2 0x1B3 JUMPI PUSH1 0x4 CALLDATALOAD PUSH1 0x24 SWAP1 DUP2 CALLDATALOAD SWAP2 PUSH2 0x18F6 PUSH2 0x2665 JUMP JUMPDEST PUSH2 0x18FE PUSH2 0x2642 JUMP JUMPDEST DUP2 PUSH1 0x0 MSTORE PUSH1 0x20 SWAP1 PUSH1 0x6 DUP3 MSTORE PUSH2 0x1919 PUSH1 0x40 PUSH1 0x0 KECCAK256 SLOAD ISZERO ISZERO PUSH2 0x238C JUMP JUMPDEST DUP3 PUSH1 0x0 MSTORE PUSH1 0x6 DUP3 MSTORE PUSH1 0xFF PUSH1 0xD PUSH1 0x40 PUSH1 0x0 KECCAK256 ADD SLOAD AND PUSH1 0x4 DUP2 LT ISZERO PUSH2 0x1B1A JUMPI PUSH2 0x1940 SWAP1 ISZERO PUSH2 0x24CE JUMP JUMPDEST DUP3 PUSH1 0x0 MSTORE PUSH1 0x6 DUP3 MSTORE PUSH1 0x5 PUSH1 0x40 PUSH1 0x0 KECCAK256 ADD SLOAD TIMESTAMP LT ISZERO PUSH2 0x1AE6 JUMPI PUSH7 0x38D7EA4C68000 CALLVALUE LT PUSH2 0x1AB5 JUMPI PUSH9 0x56BC75E2D63100000 CALLVALUE GT PUSH2 0x1A83 JUMPI DUP3 PUSH1 0x0 MSTORE PUSH1 0x7 DUP3 MSTORE PUSH1 0x40 PUSH1 0x0 KECCAK256 CALLER PUSH1 0x0 MSTORE DUP3 MSTORE PUSH1 0x40 PUSH1 0x0 KECCAK256 SLOAD PUSH2 0x1A4C JUMPI POP PUSH2 0x19FC PUSH1 0x40 MLOAD PUSH2 0x19A3 DUP2 PUSH2 0x2177 JUMP JUMPDEST DUP5 DUP2 MSTORE PUSH1 0x3 DUP4 DUP3 ADD CALLVALUE DUP2 MSTORE PUSH1 0x40 DUP4 ADD TIMESTAMP DUP2 MSTORE PUSH1 0x60 DUP5 ADD SWAP2 PUSH1 0x0 DUP4 MSTORE DUP8 PUSH1 0x0 MSTORE PUSH1 0x7 DUP8 MSTORE PUSH1 0x40 PUSH1 0x0 KECCAK256 CALLER PUSH1 0x0 MSTORE DUP8 MSTORE PUSH1 0x40 PUSH1 0x0 KECCAK256 SWAP5 MLOAD DUP6 SSTORE MLOAD PUSH1 0x1 DUP6 ADD SSTORE MLOAD PUSH1 0x2 DUP5 ADD SSTORE MLOAD ISZERO ISZERO SWAP2 ADD SWAP1 PUSH1 0xFF DUP1 NOT DUP4 SLOAD AND SWAP2 ISZERO ISZERO AND OR SWAP1 SSTORE JUMP JUMPDEST DUP2 PUSH1 0x0 MSTORE PUSH1 0xA DUP2 MSTORE PUSH1 0x40 PUSH1 0x0 KECCAK256 PUSH2 0x1A13 DUP2 SLOAD PUSH2 0x250E JUMP JUMPDEST SWAP1 SSTORE PUSH1 0x40 MLOAD SWAP3 DUP4 MSTORE CALLVALUE SWAP1 DUP4 ADD MSTORE PUSH32 0xC02F2358FE181CC846163D0CA2CD612408CEF67A7ACDBB92CD09045DF0E2FD9A PUSH1 0x40 CALLER SWAP4 LOG3 PUSH1 0x1 DUP1 SSTORE STOP JUMPDEST SWAP1 PUSH1 0x11 PUSH1 0x64 SWAP3 PUSH1 0x40 MLOAD SWAP3 PUSH3 0x461BCD PUSH1 0xE5 SHL DUP5 MSTORE PUSH1 0x4 DUP5 ADD MSTORE DUP3 ADD MSTORE PUSH17 0x105B1C9958591E4818DBDB5B5A5D1D1959 PUSH1 0x7A SHL PUSH1 0x44 DUP3 ADD MSTORE REVERT JUMPDEST SWAP1 PUSH1 0xC PUSH1 0x64 SWAP3 PUSH1 0x40 MLOAD SWAP3 PUSH3 0x461BCD PUSH1 0xE5 SHL DUP5 MSTORE PUSH1 0x4 DUP5 ADD MSTORE DUP3 ADD MSTORE PUSH12 0x84CAE840E8DEDE40D0D2CED PUSH1 0xA3 SHL PUSH1 0x44 DUP3 ADD MSTORE REVERT JUMPDEST SWAP1 PUSH1 0xB PUSH1 0x64 SWAP3 PUSH1 0x40 MLOAD SWAP3 PUSH3 0x461BCD PUSH1 0xE5 SHL DUP5 MSTORE PUSH1 0x4 DUP5 ADD MSTORE DUP3 ADD MSTORE PUSH11 0x42657420746F6F206C6F77 PUSH1 0xA8 SHL PUSH1 0x44 DUP3 ADD MSTORE REVERT JUMPDEST SWAP1 PUSH1 0xE PUSH1 0x64 SWAP3 PUSH1 0x40 MLOAD SWAP3 PUSH3 0x461BCD PUSH1 0xE5 SHL DUP5 MSTORE PUSH1 0x4 DUP5 ADD MSTORE DUP3 ADD MSTORE PUSH14 0x13585C9AD95D08195E1C1A5C9959 PUSH1 0x92 SHL PUSH1 0x44 DUP3 ADD MSTORE REVERT JUMPDEST POP PUSH4 0x4E487B71 PUSH1 0xE0 SHL PUSH1 0x0 SWAP1 DUP2 MSTORE PUSH1 0x21 PUSH1 0x4 MSTORE REVERT JUMPDEST CALLVALUE PUSH2 0x1B3 JUMPI PUSH1 0x20 DUP1 PUSH1 0x3 NOT CALLDATASIZE ADD SLT PUSH2 0x1B3 JUMPI PUSH1 0x4 CALLDATALOAD PUSH2 0x1B4C PUSH2 0x2642 JUMP JUMPDEST DUP1 PUSH1 0x0 MSTORE PUSH1 0x6 DUP3 MSTORE PUSH2 0x1B64 PUSH1 0x40 PUSH1 0x0 KECCAK256 SLOAD ISZERO ISZERO PUSH2 0x238C JUMP JUMPDEST DUP1 PUSH1 0x0 MSTORE PUSH1 0x6 DUP3 MSTORE PUSH1 0x40 PUSH1 0x0 KECCAK256 SWAP2 PUSH1 0xD DUP4 ADD SLOAD SWAP3 PUSH1 0xFF DUP5 AND PUSH1 0x4 DUP2 LT ISZERO PUSH2 0x559 JUMPI PUSH1 0x2 SUB PUSH2 0x1DF9 JUMPI DUP3 PUSH1 0x0 MSTORE PUSH1 0x8 DUP3 MSTORE PUSH1 0x40 PUSH1 0x0 KECCAK256 CALLER PUSH1 0x0 MSTORE DUP3 MSTORE PUSH1 0x40 PUSH1 0x0 KECCAK256 PUSH1 0x3 DUP2 ADD SLOAD ISZERO PUSH2 0x1DC5 JUMPI PUSH1 0x5 DUP2 ADD SWAP2 DUP3 SLOAD SWAP6 PUSH1 0xFF DUP8 AND PUSH2 0x1D8E JUMPI PUSH1 0xFF DUP1 PUSH1 0x1 DUP6 ADD SLOAD PUSH1 0xA0 SHR AND SWAP2 PUSH1 0x8 SHR AND SWAP1 DUP2 ISZERO ISZERO SWAP1 ISZERO ISZERO SUB PUSH2 0x1D57 JUMPI ISZERO PUSH2 0x1D4C JUMPI PUSH1 0xA DUP2 ADD SLOAD SWAP2 JUMPDEST DUP3 ISZERO PUSH2 0x1D13 JUMPI PUSH2 0x1C0A SWAP3 SWAP2 PUSH1 0x7 PUSH1 0x2 PUSH2 0x1C05 SWAP4 ADD SLOAD SWAP2 ADD SLOAD SWAP1 PUSH2 0x248E JUMP JUMPDEST PUSH2 0x24A1 JUMP JUMPDEST SWAP1 PUSH1 0xA DUP3 MUL DUP3 DUP2 DIV PUSH1 0xA EQ DUP4 ISZERO OR ISZERO PUSH2 0xAE3 JUMPI PUSH2 0x1C2D PUSH1 0x64 PUSH1 0x1 SWAP3 DIV DUP1 SWAP5 PUSH2 0x24C1 JUMP JUMPDEST SWAP6 PUSH1 0xFF NOT AND OR SWAP1 SSTORE PUSH1 0x0 DUP1 DUP1 DUP1 DUP8 CALLER GAS CALL PUSH2 0x1C46 PUSH2 0x245E JUMP JUMPDEST POP ISZERO PUSH2 0x1CDC JUMPI PUSH1 0x4 SLOAD PUSH1 0x0 SWAP2 DUP3 SWAP2 DUP3 SWAP2 DUP3 SWAP2 PUSH1 0x1 PUSH1 0x1 PUSH1 0xA0 SHL SUB AND GAS CALL PUSH2 0x1C6B PUSH2 0x245E JUMP JUMPDEST POP ISZERO PUSH2 0x1CA2 JUMPI PUSH32 0x5380CF6FE903B40C6D5A9E0DFBCA2F3A423F0A21520B4D5947ED5169BDBA946D SWAP1 PUSH1 0x40 MLOAD SWAP4 DUP5 MSTORE CALLER SWAP4 LOG3 PUSH1 0x1 DUP1 SSTORE STOP JUMPDEST PUSH1 0x64 SWAP1 PUSH1 0x40 MLOAD SWAP1 PUSH3 0x461BCD PUSH1 0xE5 SHL DUP3 MSTORE PUSH1 0x4 DUP3 ADD MSTORE PUSH1 0x13 PUSH1 0x24 DUP3 ADD MSTORE PUSH19 0x119959481D1C985B9CD9995C8819985A5B1959 PUSH1 0x6A SHL PUSH1 0x44 DUP3 ADD MSTORE REVERT JUMPDEST PUSH1 0x40 MLOAD PUSH3 0x461BCD PUSH1 0xE5 SHL DUP2 MSTORE PUSH1 0x4 DUP2 ADD DUP4 SWAP1 MSTORE PUSH1 0xF PUSH1 0x24 DUP3 ADD MSTORE PUSH15 0x151C985B9CD9995C8819985A5B1959 PUSH1 0x8A SHL PUSH1 0x44 DUP3 ADD MSTORE PUSH1 0x64 SWAP1 REVERT JUMPDEST PUSH1 0x40 MLOAD PUSH3 0x461BCD PUSH1 0xE5 SHL DUP2 MSTORE PUSH1 0x4 DUP2 ADD DUP7 SWAP1 MSTORE PUSH1 0x11 PUSH1 0x24 DUP3 ADD MSTORE PUSH17 0x4E6F2077696E6E696E6720736861726573 PUSH1 0x78 SHL PUSH1 0x44 DUP3 ADD MSTORE PUSH1 0x64 SWAP1 REVERT JUMPDEST PUSH1 0xB DUP2 ADD SLOAD SWAP2 PUSH2 0x1BE7 JUMP JUMPDEST PUSH1 0x40 MLOAD PUSH3 0x461BCD PUSH1 0xE5 SHL DUP2 MSTORE PUSH1 0x4 DUP2 ADD DUP7 SWAP1 MSTORE PUSH1 0xF PUSH1 0x24 DUP3 ADD MSTORE PUSH15 0x2132BA103234B2103737BA103BB4B7 PUSH1 0x89 SHL PUSH1 0x44 DUP3 ADD MSTORE PUSH1 0x64 SWAP1 REVERT JUMPDEST PUSH1 0x40 MLOAD PUSH3 0x461BCD PUSH1 0xE5 SHL DUP2 MSTORE PUSH1 0x4 DUP2 ADD DUP7 SWAP1 MSTORE PUSH1 0xF PUSH1 0x24 DUP3 ADD MSTORE PUSH15 0x105B1C9958591E4818DB185A5B5959 PUSH1 0x8A SHL PUSH1 0x44 DUP3 ADD MSTORE PUSH1 0x64 SWAP1 REVERT JUMPDEST PUSH1 0x40 MLOAD PUSH3 0x461BCD PUSH1 0xE5 SHL DUP2 MSTORE PUSH1 0x4 DUP2 ADD DUP5 SWAP1 MSTORE PUSH1 0xC PUSH1 0x24 DUP3 ADD MSTORE PUSH12 0x139BC818995D08199BDD5B99 PUSH1 0xA2 SHL PUSH1 0x44 DUP3 ADD MSTORE PUSH1 0x64 SWAP1 REVERT JUMPDEST PUSH1 0x40 MLOAD PUSH3 0x461BCD PUSH1 0xE5 SHL DUP2 MSTORE PUSH1 0x4 DUP2 ADD DUP4 SWAP1 MSTORE PUSH1 0x13 PUSH1 0x24 DUP3 ADD MSTORE PUSH19 0x13585C9AD95D081B9BDD081C995CDBDB1D9959 PUSH1 0x6A SHL PUSH1 0x44 DUP3 ADD MSTORE PUSH1 0x64 SWAP1 REVERT JUMPDEST CALLVALUE PUSH2 0x1B3 JUMPI PUSH1 0x0 CALLDATASIZE PUSH1 0x3 NOT ADD SLT PUSH2 0x1B3 JUMPI PUSH1 0x20 PUSH1 0x40 MLOAD PUSH7 0x38D7EA4C68000 DUP2 MSTORE RETURN JUMPDEST CALLVALUE PUSH2 0x1B3 JUMPI PUSH1 0x0 CALLDATASIZE PUSH1 0x3 NOT ADD SLT PUSH2 0x1B3 JUMPI PUSH1 0x20 PUSH1 0xFF PUSH1 0x2 SLOAD AND PUSH1 0x40 MLOAD SWAP1 ISZERO ISZERO DUP2 MSTORE RETURN JUMPDEST CALLVALUE PUSH2 0x1B3 JUMPI PUSH1 0x20 DUP1 PUSH1 0x3 NOT CALLDATASIZE ADD SLT PUSH2 0x1B3 JUMPI PUSH1 0x4 CALLDATALOAD PUSH2 0x1E96 PUSH2 0x2642 JUMP JUMPDEST DUP1 PUSH1 0x0 MSTORE PUSH1 0x6 DUP3 MSTORE PUSH2 0x1EAE PUSH1 0x40 PUSH1 0x0 KECCAK256 SLOAD ISZERO ISZERO PUSH2 0x238C JUMP JUMPDEST DUP1 PUSH1 0x0 MSTORE PUSH1 0x6 DUP3 MSTORE PUSH1 0x40 PUSH1 0x0 KECCAK256 PUSH1 0xFF PUSH1 0xD DUP3 ADD SLOAD AND SWAP1 PUSH1 0x4 DUP3 LT ISZERO PUSH2 0x559 JUMPI PUSH1 0x3 DUP3 EQ SWAP2 DUP3 ISZERO PUSH2 0x1FB0 JUMPI JUMPDEST POP POP ISZERO PUSH2 0x1F73 JUMPI PUSH1 0x0 MSTORE PUSH1 0x7 DUP2 MSTORE PUSH1 0x40 PUSH1 0x0 KECCAK256 CALLER PUSH1 0x0 MSTORE DUP2 MSTORE PUSH1 0x0 DUP1 DUP1 DUP1 PUSH1 0x40 DUP2 KECCAK256 PUSH2 0x1F07 DUP2 SLOAD ISZERO ISZERO PUSH2 0x23DD JUMP JUMPDEST PUSH1 0x3 DUP2 ADD PUSH1 0x1 DUP1 DUP3 SLOAD SWAP4 PUSH2 0x1F1E PUSH1 0xFF DUP7 AND ISZERO PUSH2 0x241F JUMP JUMPDEST ADD SLOAD SWAP3 PUSH1 0xFF NOT AND OR SWAP1 SSTORE CALLER GAS CALL PUSH2 0x1F33 PUSH2 0x245E JUMP JUMPDEST POP ISZERO PUSH2 0x1F3F JUMPI PUSH1 0x1 DUP1 SSTORE STOP JUMPDEST PUSH1 0x64 SWAP1 PUSH1 0x40 MLOAD SWAP1 PUSH3 0x461BCD PUSH1 0xE5 SHL DUP3 MSTORE PUSH1 0x4 DUP3 ADD MSTORE PUSH1 0xD PUSH1 0x24 DUP3 ADD MSTORE PUSH13 0x1499599D5B990819985A5B1959 PUSH1 0x9A SHL PUSH1 0x44 DUP3 ADD MSTORE REVERT JUMPDEST PUSH1 0x40 MLOAD PUSH3 0x461BCD PUSH1 0xE5 SHL DUP2 MSTORE PUSH1 0x4 DUP2 ADD DUP4 SWAP1 MSTORE PUSH1 0x15 PUSH1 0x24 DUP3 ADD MSTORE PUSH21 0x526566756E6473206E6F7420617661696C61626C65 PUSH1 0x58 SHL PUSH1 0x44 DUP3 ADD MSTORE PUSH1 0x64 SWAP1 REVERT JUMPDEST PUSH1 0x1 EQ SWAP2 POP DUP2 PUSH2 0x1FC3 JUMPI JUMPDEST POP DUP4 DUP1 PUSH2 0x1ED9 JUMP JUMPDEST PUSH1 0x5 SWAP2 POP ADD SLOAD PUSH2 0xE10 DUP2 ADD DUP1 SWAP2 GT PUSH2 0xAE3 JUMPI TIMESTAMP GT DUP4 PUSH2 0x1FBB JUMP JUMPDEST CALLVALUE PUSH2 0x1B3 JUMPI PUSH1 0x0 CALLDATASIZE PUSH1 0x3 NOT ADD SLT PUSH2 0x1B3 JUMPI PUSH1 0x20 PUSH1 0x40 MLOAD PUSH1 0xA DUP2 MSTORE RETURN JUMPDEST CALLVALUE PUSH2 0x1B3 JUMPI PUSH1 0x0 CALLDATASIZE PUSH1 0x3 NOT ADD SLT PUSH2 0x1B3 JUMPI PUSH1 0x4 SLOAD PUSH1 0x40 MLOAD PUSH1 0x1 PUSH1 0x1 PUSH1 0xA0 SHL SUB SWAP1 SWAP2 AND DUP2 MSTORE PUSH1 0x20 SWAP1 RETURN JUMPDEST CALLVALUE PUSH2 0x1B3 JUMPI PUSH1 0x0 CALLDATASIZE PUSH1 0x3 NOT ADD SLT PUSH2 0x1B3 JUMPI PUSH2 0x203B PUSH2 0x2616 JUMP JUMPDEST PUSH1 0x2 SLOAD PUSH1 0xFF DUP2 AND ISZERO PUSH2 0x207A JUMPI PUSH1 0xFF NOT AND PUSH1 0x2 SSTORE PUSH32 0x5DB9EE0A495BF2E6FF9C91A7834C1BA4FDD244A5E8AA4E537BD38AEAE4B073AA PUSH1 0x20 PUSH1 0x40 MLOAD CALLER DUP2 MSTORE LOG1 STOP JUMPDEST PUSH1 0x40 MLOAD PUSH4 0x8DFC202B PUSH1 0xE0 SHL DUP2 MSTORE PUSH1 0x4 SWAP1 REVERT JUMPDEST CALLVALUE PUSH2 0x1B3 JUMPI PUSH1 0x40 CALLDATASIZE PUSH1 0x3 NOT ADD SLT PUSH2 0x1B3 JUMPI PUSH1 0x24 CALLDATALOAD PUSH1 0x4 CALLDATALOAD PUSH1 0x0 MSTORE PUSH1 0x9 PUSH1 0x20 MSTORE PUSH1 0x40 PUSH1 0x0 KECCAK256 DUP1 SLOAD DUP3 LT ISZERO PUSH2 0x1B3 JUMPI PUSH1 0x20 SWAP2 PUSH2 0x20C5 SWAP2 PUSH2 0x211D JUMP JUMPDEST SWAP1 SLOAD PUSH1 0x40 MLOAD PUSH1 0x3 SWAP3 SWAP1 SWAP3 SHL SHR PUSH1 0x1 PUSH1 0x1 PUSH1 0xA0 SHL SUB AND DUP2 MSTORE RETURN JUMPDEST CALLVALUE PUSH2 0x1B3 JUMPI PUSH1 0x0 CALLDATASIZE PUSH1 0x3 NOT ADD SLT PUSH2 0x1B3 JUMPI PUSH1 0x20 PUSH1 0x40 MLOAD PUSH9 0x56BC75E2D63100000 DUP2 MSTORE RETURN JUMPDEST CALLVALUE PUSH2 0x1B3 JUMPI PUSH1 0x0 CALLDATASIZE PUSH1 0x3 NOT ADD SLT PUSH2 0x1B3 JUMPI DUP1 PUSH2 0xE10 PUSH1 0x20 SWAP3 MSTORE RETURN JUMPDEST DUP1 SLOAD DUP3 LT ISZERO PUSH2 0x2135 JUMPI PUSH1 0x0 MSTORE PUSH1 0x20 PUSH1 0x0 KECCAK256 ADD SWAP1 PUSH1 0x0 SWAP1 JUMP JUMPDEST PUSH4 0x4E487B71 PUSH1 0xE0 SHL PUSH1 0x0 MSTORE PUSH1 0x32 PUSH1 0x4 MSTORE PUSH1 0x24 PUSH1 0x0 REVERT JUMPDEST PUSH1 0x4 CALLDATALOAD SWAP1 PUSH1 0x1 PUSH1 0x1 PUSH1 0xA0 SHL SUB DUP3 AND DUP3 SUB PUSH2 0x1B3 JUMPI JUMP JUMPDEST PUSH1 0x24 CALLDATALOAD SWAP1 PUSH1 0x1 PUSH1 0x1 PUSH1 0xA0 SHL SUB DUP3 AND DUP3 SUB PUSH2 0x1B3 JUMPI JUMP JUMPDEST PUSH1 0x80 DUP2 ADD SWAP1 DUP2 LT PUSH8 0xFFFFFFFFFFFFFFFF DUP3 GT OR PUSH2 0xACD JUMPI PUSH1 0x40 MSTORE JUMP JUMPDEST PUSH1 0xE0 DUP2 ADD SWAP1 DUP2 LT PUSH8 0xFFFFFFFFFFFFFFFF DUP3 GT OR PUSH2 0xACD JUMPI PUSH1 0x40 MSTORE JUMP JUMPDEST PUSH2 0x200 DUP2 ADD SWAP1 DUP2 LT PUSH8 0xFFFFFFFFFFFFFFFF DUP3 GT OR PUSH2 0xACD JUMPI PUSH1 0x40 MSTORE JUMP JUMPDEST SWAP1 PUSH1 0x1F DUP1 NOT SWAP2 ADD AND DUP2 ADD SWAP1 DUP2 LT PUSH8 0xFFFFFFFFFFFFFFFF DUP3 GT OR PUSH2 0xACD JUMPI PUSH1 0x40 MSTORE JUMP JUMPDEST PUSH8 0xFFFFFFFFFFFFFFFF DUP2 GT PUSH2 0xACD JUMPI PUSH1 0x1F ADD PUSH1 0x1F NOT AND PUSH1 0x20 ADD SWAP1 JUMP JUMPDEST DUP2 PUSH1 0x1F DUP3 ADD SLT ISZERO PUSH2 0x1B3 JUMPI DUP1 CALLDATALOAD SWAP1 PUSH2 0x2221 DUP3 PUSH2 0x21EE JUMP JUMPDEST SWAP3 PUSH2 0x222F PUSH1 0x40 MLOAD SWAP5 DUP6 PUSH2 0x21CC JUMP JUMPDEST DUP3 DUP5 MSTORE PUSH1 0x20 DUP4 DUP4 ADD ADD GT PUSH2 0x1B3 JUMPI DUP2 PUSH1 0x0 SWAP3 PUSH1 0x20 DUP1 SWAP4 ADD DUP4 DUP7 ADD CALLDATACOPY DUP4 ADD ADD MSTORE SWAP1 JUMP JUMPDEST SWAP1 PUSH1 0x1 DUP3 DUP2 SHR SWAP3 AND DUP1 ISZERO PUSH2 0x2281 JUMPI JUMPDEST PUSH1 0x20 DUP4 LT EQ PUSH2 0x226B JUMPI JUMP JUMPDEST PUSH4 0x4E487B71 PUSH1 0xE0 SHL PUSH1 0x0 MSTORE PUSH1 0x22 PUSH1 0x4 MSTORE PUSH1 0x24 PUSH1 0x0 REVERT JUMPDEST SWAP2 PUSH1 0x7F AND SWAP2 PUSH2 0x2260 JUMP JUMPDEST SWAP1 PUSH1 0x40 MLOAD SWAP2 DUP3 PUSH1 0x0 DUP3 SLOAD PUSH2 0x229E DUP2 PUSH2 0x2251 JUMP JUMPDEST SWAP1 DUP2 DUP5 MSTORE PUSH1 0x20 SWAP5 PUSH1 0x1 SWAP2 PUSH1 0x1 DUP2 AND SWAP1 DUP2 PUSH1 0x0 EQ PUSH2 0x230E JUMPI POP PUSH1 0x1 EQ PUSH2 0x22CF JUMPI JUMPDEST POP POP POP PUSH2 0x22CD SWAP3 POP SUB DUP4 PUSH2 0x21CC JUMP JUMPDEST JUMP JUMPDEST PUSH1 0x0 SWAP1 DUP2 MSTORE DUP6 DUP2 KECCAK256 SWAP6 SWAP4 POP SWAP2 SWAP1 JUMPDEST DUP2 DUP4 LT PUSH2 0x22F6 JUMPI POP POP PUSH2 0x22CD SWAP4 POP DUP3 ADD ADD CODESIZE DUP1 DUP1 PUSH2 0x22BE JUMP JUMPDEST DUP6 SLOAD DUP9 DUP5 ADD DUP6 ADD MSTORE SWAP5 DUP6 ADD SWAP5 DUP8 SWAP5 POP SWAP2 DUP4 ADD SWAP2 PUSH2 0x22DD JUMP JUMPDEST SWAP3 POP POP POP PUSH2 0x22CD SWAP5 SWAP3 POP PUSH1 0xFF NOT AND DUP3 DUP5 ADD MSTORE ISZERO ISZERO PUSH1 0x5 SHL DUP3 ADD ADD CODESIZE DUP1 DUP1 PUSH2 0x22BE JUMP JUMPDEST SWAP2 SWAP1 DUP3 MLOAD SWAP3 DUP4 DUP3 MSTORE PUSH1 0x0 JUMPDEST DUP5 DUP2 LT PUSH2 0x235C JUMPI POP POP DUP3 PUSH1 0x0 PUSH1 0x20 DUP1 SWAP5 SWAP6 DUP5 ADD ADD MSTORE PUSH1 0x1F DUP1 NOT SWAP2 ADD AND ADD ADD SWAP1 JUMP JUMPDEST PUSH1 0x20 DUP2 DUP4 ADD DUP2 ADD MLOAD DUP5 DUP4 ADD DUP3 ADD MSTORE ADD PUSH2 0x233B JUMP JUMPDEST SWAP1 PUSH1 0x4 DUP3 LT ISZERO PUSH2 0x559 JUMPI MSTORE JUMP JUMPDEST PUSH1 0x24 CALLDATALOAD SWAP1 DUP2 ISZERO ISZERO DUP3 SUB PUSH2 0x1B3 JUMPI JUMP JUMPDEST ISZERO PUSH2 0x2393 JUMPI JUMP JUMPDEST PUSH1 0x40 MLOAD PUSH3 0x461BCD PUSH1 0xE5 SHL DUP2 MSTORE PUSH1 0x20 PUSH1 0x4 DUP3 ADD MSTORE PUSH1 0x15 PUSH1 0x24 DUP3 ADD MSTORE PUSH21 0x13585C9AD95D08191BD95CC81B9BDD08195E1A5CDD PUSH1 0x5A SHL PUSH1 0x44 DUP3 ADD MSTORE PUSH1 0x64 SWAP1 REVERT JUMPDEST SWAP2 SWAP1 DUP3 ADD DUP1 SWAP3 GT PUSH2 0xAE3 JUMPI JUMP JUMPDEST ISZERO PUSH2 0x23E4 JUMPI JUMP JUMPDEST PUSH1 0x40 MLOAD PUSH3 0x461BCD PUSH1 0xE5 SHL DUP2 MSTORE PUSH1 0x20 PUSH1 0x4 DUP3 ADD MSTORE PUSH1 0x13 PUSH1 0x24 DUP3 ADD MSTORE PUSH19 0x139BC818DBDB5B5A5D1B595B9D08199BDD5B99 PUSH1 0x6A SHL PUSH1 0x44 DUP3 ADD MSTORE PUSH1 0x64 SWAP1 REVERT JUMPDEST ISZERO PUSH2 0x2426 JUMPI JUMP JUMPDEST PUSH1 0x40 MLOAD PUSH3 0x461BCD PUSH1 0xE5 SHL DUP2 MSTORE PUSH1 0x20 PUSH1 0x4 DUP3 ADD MSTORE PUSH1 0x10 PUSH1 0x24 DUP3 ADD MSTORE PUSH16 0x105B1C9958591E481C995D99585B1959 PUSH1 0x82 SHL PUSH1 0x44 DUP3 ADD MSTORE PUSH1 0x64 SWAP1 REVERT JUMPDEST RETURNDATASIZE ISZERO PUSH2 0x2489 JUMPI RETURNDATASIZE SWAP1 PUSH2 0x246F DUP3 PUSH2 0x21EE JUMP JUMPDEST SWAP2 PUSH2 0x247D PUSH1 0x40 MLOAD SWAP4 DUP5 PUSH2 0x21CC JUMP JUMPDEST DUP3 MSTORE RETURNDATASIZE PUSH1 0x0 PUSH1 0x20 DUP5 ADD RETURNDATACOPY JUMP JUMPDEST PUSH1 0x60 SWAP1 JUMP JUMPDEST DUP2 DUP2 MUL SWAP3 SWAP2 DUP2 ISZERO SWAP2 DUP5 DIV EQ OR ISZERO PUSH2 0xAE3 JUMPI JUMP JUMPDEST DUP2 ISZERO PUSH2 0x24AB JUMPI DIV SWAP1 JUMP JUMPDEST PUSH4 0x4E487B71 PUSH1 0xE0 SHL PUSH1 0x0 MSTORE PUSH1 0x12 PUSH1 0x4 MSTORE PUSH1 0x24 PUSH1 0x0 REVERT JUMPDEST SWAP2 SWAP1 DUP3 SUB SWAP2 DUP3 GT PUSH2 0xAE3 JUMPI JUMP JUMPDEST ISZERO PUSH2 0x24D5 JUMPI JUMP JUMPDEST PUSH1 0x40 MLOAD PUSH3 0x461BCD PUSH1 0xE5 SHL DUP2 MSTORE PUSH1 0x20 PUSH1 0x4 DUP3 ADD MSTORE PUSH1 0x11 PUSH1 0x24 DUP3 ADD MSTORE PUSH17 0x4D61726B6574206E6F7420616374697665 PUSH1 0x78 SHL PUSH1 0x44 DUP3 ADD MSTORE PUSH1 0x64 SWAP1 REVERT JUMPDEST PUSH1 0x0 NOT DUP2 EQ PUSH2 0xAE3 JUMPI PUSH1 0x1 ADD SWAP1 JUMP JUMPDEST SWAP1 PUSH1 0x0 SWAP2 DUP3 MSTORE PUSH1 0x6 PUSH1 0x20 MSTORE PUSH1 0x40 DUP3 KECCAK256 SWAP1 PUSH1 0x8 PUSH1 0x20 MSTORE PUSH1 0x40 DUP4 KECCAK256 SWAP1 PUSH1 0x1 DUP1 PUSH1 0xA0 SHL SUB AND DUP4 MSTORE PUSH1 0x20 MSTORE PUSH1 0x40 DUP3 KECCAK256 PUSH1 0xD DUP3 ADD SLOAD PUSH1 0xFF DUP2 AND PUSH1 0x4 DUP2 LT ISZERO PUSH2 0x2602 JUMPI PUSH1 0x2 EQ DUP1 ISZERO SWAP1 PUSH2 0x25E3 JUMPI JUMPDEST PUSH2 0x25D2 JUMPI PUSH1 0x8 SHR PUSH1 0xFF AND ISZERO PUSH2 0x25D8 JUMPI PUSH1 0xA DUP3 ADD SLOAD SWAP1 JUMPDEST DUP2 ISZERO PUSH2 0x25D2 JUMPI PUSH2 0x2598 SWAP3 PUSH1 0x7 PUSH1 0x2 PUSH2 0x1C05 SWAP4 ADD SLOAD SWAP2 ADD SLOAD SWAP1 PUSH2 0x248E JUMP JUMPDEST SWAP1 PUSH1 0xA DUP3 MUL SWAP1 DUP3 DUP3 DIV PUSH1 0xA EQ DUP4 ISZERO OR ISZERO PUSH2 0x25BE JUMPI POP SWAP1 PUSH1 0x64 PUSH2 0x25BB SWAP3 DIV SWAP1 PUSH2 0x24C1 JUMP JUMPDEST SWAP1 JUMP JUMPDEST PUSH4 0x4E487B71 PUSH1 0xE0 SHL DUP2 MSTORE PUSH1 0x11 PUSH1 0x4 MSTORE PUSH1 0x24 SWAP1 REVERT JUMPDEST POP POP POP SWAP1 JUMP JUMPDEST PUSH1 0xB DUP3 ADD SLOAD SWAP1 PUSH2 0x257B JUMP JUMPDEST POP PUSH1 0xFF PUSH1 0x1 DUP4 ADD SLOAD PUSH1 0xA0 SHR AND PUSH1 0xFF DUP3 PUSH1 0x8 SHR AND ISZERO ISZERO SWAP1 ISZERO ISZERO EQ ISZERO PUSH2 0x2565 JUMP JUMPDEST PUSH4 0x4E487B71 PUSH1 0xE0 SHL DUP6 MSTORE PUSH1 0x21 PUSH1 0x4 MSTORE PUSH1 0x24 DUP6 REVERT JUMPDEST PUSH1 0x0 SLOAD PUSH1 0x1 PUSH1 0x1 PUSH1 0xA0 SHL SUB AND CALLER SUB PUSH2 0x262A JUMPI JUMP JUMPDEST PUSH1 0x40 MLOAD PUSH4 0x118CDAA7 PUSH1 0xE0 SHL DUP2 MSTORE CALLER PUSH1 0x4 DUP3 ADD MSTORE PUSH1 0x24 SWAP1 REVERT JUMPDEST PUSH1 0x2 PUSH1 0x1 SLOAD EQ PUSH2 0x2653 JUMPI PUSH1 0x2 PUSH1 0x1 SSTORE JUMP JUMPDEST PUSH1 0x40 MLOAD PUSH4 0x3EE5AEB5 PUSH1 0xE0 SHL DUP2 MSTORE PUSH1 0x4 SWAP1 REVERT JUMPDEST PUSH1 0xFF PUSH1 0x2 SLOAD AND PUSH2 0x2671 JUMPI JUMP JUMPDEST PUSH1 0x40 MLOAD PUSH4 0xD93C0665 PUSH1 0xE0 SHL DUP2 MSTORE PUSH1 0x4 SWAP1 REVERT INVALID LOG2 PUSH5 0x6970667358 0x22 SLT KECCAK256 ADDMOD PUSH10 0x446888F5DF694F1526E6 PUSH32 0x9123BD9576C5B073EBB00ACDB0CC283DB750EB64736F6C634300081800330000 "},"methodIdentifiers":{"COMMIT_REVEAL_TIMEOUT()":"04abca54","MAX_BET_AMOUNT()":"309167f5","MIN_BET_AMOUNT()":"6475e3d3","PLATFORM_FEE_PERCENT()":"560d52d4","PRICE_PRECISION()":"95082d25","bets(uint256,address)":"f644b3bb","calculatePayout(uint256,address)":"b726be7f","cancelMarket(uint256)":"7c16cd9e","claimRefund(uint256)":"5b7baf64","claimWinnings(uint256)":"677bd9ff","commitBet(uint256,bytes32)":"70822fd7","commitments(uint256,address)":"e90d4c06","createMarket(string,string,uint256,uint8)":"b0307a61","emergencyWithdraw()":"db2e21bc","getBet(uint256,address)":"e0950ddf","getCommitment(uint256,address)":"89fb2682","getMarket(uint256)":"eb44fdd3","getMarketCount()":"fd69f3c2","marketIdCounter()":"6d1c789f","marketParticipants(uint256,uint256)":"399567b9","markets(uint256)":"b1283e77","owner()":"8da5cb5b","pause()":"8456cb59","paused()":"5c975abb","pendingReveals(uint256)":"b08c7fac","renounceOwnership()":"715018a6","resolveMarket(uint256,bool,string)":"baaa80bb","resolverAddress()":"b1db5bec","revealBet(uint256,bool,bytes32)":"c4ebecf2","setResolverAddress(address)":"dd28218b","setVaultAddress(address)":"85535cc5","transferOwnership(address)":"f2fde38b","unpause()":"3f4ba83a","vaultAddress()":"430bf08a"}}}}}