{"contracts/Vault.sol":{"Vault":{"abi":[{"inputs":[],"stateMutability":"nonpayable","type":"constructor"},{"inputs":[{"internalType":"address","name":"owner","type":"address"}],"name":"OwnableInvalidOwner","type":"error"},{"inputs":[{"internalType":"address","name":"account","type":"address"}],"name":"OwnableUnauthorizedAccount","type":"error"},{"inputs":[],"name":"ReentrancyGuardReentrantCall","type":"error"},{"anonymous":false,"inputs":[{"indexed":true,"internalType":"address","name":"to","type":"address"},{"indexed":false,"internalType":"uint256","name":"amount","type":"uint256"}],"name":"EmergencyWithdrawal","type":"event"},{"anonymous":false,"inputs":[{"indexed":true,"internalType":"address","name":"from","type":"address"},{"indexed":false,"internalType":"uint256","name":"amount","type":"uint256"},{"indexed":false,"internalType":"string","name":"source","type":"string"}],"name":"FeeReceived","type":"event"},{"anonymous":false,"inputs":[{"indexed":true,"internalType":"address","name":"previousOwner","type":"address"},{"indexed":true,"internalType":"address","name":"newOwner","type":"address"}],"name":"OwnershipTransferred","type":"event"},{"anonymous":false,"inputs":[{"indexed":true,"internalType":"address","name":"to","type":"address"},{"indexed":false,"internalType":"uint256","name":"amount","type":"uint256"}],"name":"Withdrawal","type":"event"},{"stateMutability":"payable","type":"fallback"},{"inputs":[{"internalType":"address","name":"contractAddress","type":"address"}],"name":"authorizeContract","outputs":[],"stateMutability":"nonpayable","type":"function"},{"inputs":[{"internalType":"address","name":"","type":"address"}],"name":"authorizedContracts","outputs":[{"internalType":"bool","name":"","type":"bool"}],"stateMutability":"view","type":"function"},{"inputs":[],"name":"emergencyWithdraw","outputs":[],"stateMutability":"nonpayable","type":"function"},{"inputs":[],"name":"getAvailableBalance","outputs":[{"internalType":"uint256","name":"","type":"uint256"}],"stateMutability":"view","type":"function"},{"inputs":[],"name":"getBalance","outputs":[{"internalType":"uint256","name":"","type":"uint256"}],"stateMutability":"view","type":"function"},{"inputs":[],"name":"getTotalFeesCollected","outputs":[{"internalType":"uint256","name":"","type":"uint256"}],"stateMutability":"view","type":"function"},{"inputs":[],"name":"getTotalWithdrawn","outputs":[{"internalType":"uint256","name":"","type":"uint256"}],"stateMutability":"view","type":"function"},{"inputs":[{"internalType":"address","name":"contractAddress","type":"address"}],"name":"isAuthorized","outputs":[{"internalType":"bool","name":"","type":"bool"}],"stateMutability":"view","type":"function"},{"inputs":[],"name":"owner","outputs":[{"internalType":"address","name":"","type":"address"}],"stateMutability":"view","type":"function"},{"inputs":[],"name":"renounceOwnership","outputs":[],"stateMutability":"nonpayable","type":"function"},{"inputs":[{"internalType":"address","name":"contractAddress","type":"address"}],"name":"revokeContract","outputs":[],"stateMutability":"nonpayable","type":"function"},{"inputs":[],"name":"totalFeesCollected","outputs":[{"internalType":"uint256","name":"","type":"uint256"}],"stateMutability":"view","type":"function"},{"inputs":[],"name":"totalWithdrawn","outputs":[{"internalType":"uint256","name":"","type":"uint256"}],"stateMutability":"view","type":"function"},{"inputs":[{"internalType":"address","name":"newOwner","type":"address"}],"name":"transferOwnership","outputs":[],"stateMutability":"nonpayable","type":"function"},{"inputs":[{"internalType":"uint256","name":"amount","type":"uint256"}],"name":"withdraw","outputs":[],"stateMutability":"nonpayable","type":"function"},{"inputs":[],"name":"withdrawAll","outputs":[],"stateMutability":"nonpayable","type":"function"},{"stateMutability":"payable","type":"receive"}],"evm":{"bytecode":{"linkReferences":{},"object":"6080806040523461008357331561006d5760008054336001600160a01b031982168117835560405192916001600160a01b03167f8be0079c531659141344cd1fd0a4f28419497f9722a3daafe3b4186f6b6457e08380a3600180558060025560035561085890816100898239f35b631e4fbdf760e01b815260006004820152602490fd5b600080fdfe608060408181526004803610156100c7575b5090503615610073576100263460025461070f565b60025560088151913483528060208401528201526766616c6c6261636b60c01b60608201527fefb6ba912a5a627d600a42f14016099adf2d253ba13c372e50bfae556bb43c3960803392a2005b61007f3460025461070f565b60025560038151913483528060208401528201526266656560e81b60608201527fefb6ba912a5a627d600a42f14016099adf2d253ba13c372e50bfae556bb43c3960803392a2005b600092833560e01c90816312065fe0146106f5575080632e1a7d4d1461061557806346876508146105f65780634b319713146103f057806360c6d8ae146105f657806367561d9314610578578063715018a61461051b578063809dab6a146104db578063853828b61461040f57806389404a79146103f05780638da5cb5b146103c4578063cc2e3ee114610384578063d5b9221b14610346578063db2e21bc14610253578063f2fde38b146101c55763fe9fbb800361001157346101c15760203660031901126101c15780356001600160a01b038116908190036101bd578360ff92849260209652855220541690519015158152f35b8380fd5b8280fd5b5090346101c15760203660031901126101c1576001600160a01b0382358181169391929084900361024f576101f86107d3565b831561023957505082546001600160a01b0319811683178455167f8be0079c531659141344cd1fd0a4f28419497f9722a3daafe3b4186f6b6457e08380a380f35b51631e4fbdf760e01b8152908101849052602490fd5b8480fd5b50346101c157826003193601126101c15761026c6107d3565b6102746107ff565b479081156103165760018060a01b03908480808086868254165af1610297610732565b50156102d357507f23d6711a1d031134a36921253c75aa59e967d38e369ac625992824315e204f20916020918554169351908152a26001805580f35b606490602085519162461bcd60e51b8352820152601b60248201527f456d657267656e6379207769746864726177616c206661696c656400000000006044820152fd5b606490602084519162461bcd60e51b8352820152600a6024820152694e6f2062616c616e636560b01b6044820152fd5b50346101c15760203660031901126101c15780356001600160a01b038116908190036101bd578360ff92849260209652855220541690519015158152f35b50346101c15760203660031901126101c15780356001600160a01b038116908190036101bd576103b26107d3565b83526020528120805460ff1916905580f35b5050346103ec57816003193601126103ec57905490516001600160a01b039091168152602090f35b5080fd5b5050346103ec57816003193601126103ec576020906003549051908152f35b50346101c157826003193601126101c1576104286107d3565b6104306107ff565b4790811561049f57506020816104697f7fcf532c15f0a6db0bd6d0e038bea71d30d808c7d98cb3bf7268a95bf5081b659360035461070f565b60035560018060a01b0361048f8680808086868254165af1610489610732565b50610793565b8554169351908152a26001805580f35b606490602084519162461bcd60e51b835282015260166024820152754e6f2062616c616e636520746f20776974686472617760501b6044820152fd5b509190346103ec57816003193601126103ec57600254916003548303928311610508576020838351908152f35b634e487b7160e01b815260118452602490fd5b83346105755780600319360112610575576105346107d3565b80546001600160a01b03198116825581906001600160a01b03167f8be0079c531659141344cd1fd0a4f28419497f9722a3daafe3b4186f6b6457e08280a380f35b80fd5b50346101c15760203660031901126101c15780356001600160a01b038116908190036101bd576105a66107d3565b80156105c15783526020528120805460ff1916600117905580f35b506020606492519162461bcd60e51b8352820152600f60248201526e496e76616c6964206164647265737360881b6044820152fd5b5050346103ec57816003193601126103ec576020906002549051908152f35b50346101c15760203660031901126101c1578035906106326107d3565b61063a6107ff565b81156106b25747821161067857506020816104697f7fcf532c15f0a6db0bd6d0e038bea71d30d808c7d98cb3bf7268a95bf5081b659360035461070f565b606490602084519162461bcd60e51b83528201526014602482015273496e73756666696369656e742062616c616e636560601b6044820152fd5b606490602084519162461bcd60e51b8352820152601d60248201527f416d6f756e74206d7573742062652067726561746572207468616e20300000006044820152fd5b8490346103ec57816003193601126103ec57602090478152f35b9190820180921161071c57565b634e487b7160e01b600052601160045260246000fd5b3d1561078e5767ffffffffffffffff903d8281116107785760405192601f8201601f19908116603f01168401908111848210176107785760405282523d6000602084013e565b634e487b7160e01b600052604160045260246000fd5b606090565b1561079a57565b60405162461bcd60e51b815260206004820152601160248201527015da5d1a191c985dd85b0819985a5b1959607a1b6044820152606490fd5b6000546001600160a01b031633036107e757565b60405163118cdaa760e01b8152336004820152602490fd5b600260015414610810576002600155565b604051633ee5aeb560e01b8152600490fdfea264697066735822122009ec0f79d0127d76e019c2e3fe46e2bbd07eafdb47726fab1c900f8abfe636c164736f6c63430008180033","opcodes":"PUSH1 0x80 DUP1 PUSH1 0x40 MSTORE CALLVALUE PUSH2 0x83 JUMPI CALLER ISZERO PUSH2 0x6D JUMPI PUSH1 0x0 DUP1 SLOAD CALLER PUSH1 0x1 PUSH1 0x1 PUSH1 0xA0 SHL SUB NOT DUP3 AND DUP2 OR DUP4 SSTORE PUSH1 0x40 MLOAD SWAP3 SWAP2 PUSH1 0x1 PUSH1 0x1 PUSH1 0xA0 SHL SUB AND PUSH32 0x8BE0079C531659141344CD1FD0A4F28419497F9722A3DAAFE3B4186F6B6457E0 DUP4 DUP1 LOG3 PUSH1 0x1 DUP1 SSTORE DUP1 PUSH1 0x2 SSTORE PUSH1 0x3 SSTORE PUSH2 0x858 SWAP1 DUP2 PUSH2 0x89 DUP3 CODECOPY RETURN JUMPDEST PUSH4 0x1E4FBDF7 PUSH1 0xE0 SHL DUP2 MSTORE PUSH1 0x0 PUSH1 0x4 DUP3 ADD MSTORE PUSH1 0x24 SWAP1 REVERT JUMPDEST PUSH1 0x0 DUP1 REVERT INVALID PUSH1 0x80 PUSH1 0x40 DUP2 DUP2 MSTORE PUSH1 0x4 DUP1 CALLDATASIZE LT ISZERO PUSH2 0xC7 JUMPI JUMPDEST POP SWAP1 POP CALLDATASIZE ISZERO PUSH2 0x73 JUMPI PUSH2 0x26 CALLVALUE PUSH1 0x2 SLOAD PUSH2 0x70F JUMP JUMPDEST PUSH1 0x2 SSTORE PUSH1 0x8 DUP2 MLOAD SWAP2 CALLVALUE DUP4 MSTORE DUP1 PUSH1 0x20 DUP5 ADD MSTORE DUP3 ADD MSTORE PUSH8 0x66616C6C6261636B PUSH1 0xC0 SHL PUSH1 0x60 DUP3 ADD MSTORE PUSH32 0xEFB6BA912A5A627D600A42F14016099ADF2D253BA13C372E50BFAE556BB43C39 PUSH1 0x80 CALLER SWAP3 LOG2 STOP JUMPDEST PUSH2 0x7F CALLVALUE PUSH1 0x2 SLOAD PUSH2 0x70F JUMP JUMPDEST PUSH1 0x2 SSTORE PUSH1 0x3 DUP2 MLOAD SWAP2 CALLVALUE DUP4 MSTORE DUP1 PUSH1 0x20 DUP5 ADD MSTORE DUP3 ADD MSTORE PUSH3 0x666565 PUSH1 0xE8 SHL PUSH1 0x60 DUP3 ADD MSTORE PUSH32 0xEFB6BA912A5A627D600A42F14016099ADF2D253BA13C372E50BFAE556BB43C39 PUSH1 0x80 CALLER SWAP3 LOG2 STOP JUMPDEST PUSH1 0x0 SWAP3 DUP4 CALLDATALOAD PUSH1 0xE0 SHR SWAP1 DUP2 PUSH4 0x12065FE0 EQ PUSH2 0x6F5 JUMPI POP DUP1 PUSH4 0x2E1A7D4D EQ PUSH2 0x615 JUMPI DUP1 PUSH4 0x46876508 EQ PUSH2 0x5F6 JUMPI DUP1 PUSH4 0x4B319713 EQ PUSH2 0x3F0 JUMPI DUP1 PUSH4 0x60C6D8AE EQ PUSH2 0x5F6 JUMPI DUP1 PUSH4 0x67561D93 EQ PUSH2 0x578 JUMPI DUP1 PUSH4 0x715018A6 EQ PUSH2 0x51B JUMPI DUP1 PUSH4 0x809DAB6A EQ PUSH2 0x4DB JUMPI DUP1 PUSH4 0x853828B6 EQ PUSH2 0x40F JUMPI DUP1 PUSH4 0x89404A79 EQ PUSH2 0x3F0 JUMPI DUP1 PUSH4 0x8DA5CB5B EQ PUSH2 0x3C4 JUMPI DUP1 PUSH4 0xCC2E3EE1 EQ PUSH2 0x384 JUMPI DUP1 PUSH4 0xD5B9221B EQ PUSH2 0x346 JUMPI DUP1 PUSH4 0xDB2E21BC EQ PUSH2 0x253 JUMPI DUP1 PUSH4 0xF2FDE38B EQ PUSH2 0x1C5 JUMPI PUSH4 0xFE9FBB80 SUB PUSH2 0x11 JUMPI CALLVALUE PUSH2 0x1C1 JUMPI PUSH1 0x20 CALLDATASIZE PUSH1 0x3 NOT ADD SLT PUSH2 0x1C1 JUMPI DUP1 CALLDATALOAD PUSH1 0x1 PUSH1 0x1 PUSH1 0xA0 SHL SUB DUP2 AND SWAP1 DUP2 SWAP1 SUB PUSH2 0x1BD JUMPI DUP4 PUSH1 0xFF SWAP3 DUP5 SWAP3 PUSH1 0x20 SWAP7 MSTORE DUP6 MSTORE KECCAK256 SLOAD AND SWAP1 MLOAD SWAP1 ISZERO ISZERO DUP2 MSTORE RETURN JUMPDEST DUP4 DUP1 REVERT JUMPDEST DUP3 DUP1 REVERT JUMPDEST POP SWAP1 CALLVALUE PUSH2 0x1C1 JUMPI PUSH1 0x20 CALLDATASIZE PUSH1 0x3 NOT ADD SLT PUSH2 0x1C1 JUMPI PUSH1 0x1 PUSH1 0x1 PUSH1 0xA0 SHL SUB DUP3 CALLDATALOAD DUP2 DUP2 AND SWAP4 SWAP2 SWAP3 SWAP1 DUP5 SWAP1 SUB PUSH2 0x24F JUMPI PUSH2 0x1F8 PUSH2 0x7D3 JUMP JUMPDEST DUP4 ISZERO PUSH2 0x239 JUMPI POP POP DUP3 SLOAD PUSH1 0x1 PUSH1 0x1 PUSH1 0xA0 SHL SUB NOT DUP2 AND DUP4 OR DUP5 SSTORE AND PUSH32 0x8BE0079C531659141344CD1FD0A4F28419497F9722A3DAAFE3B4186F6B6457E0 DUP4 DUP1 LOG3 DUP1 RETURN JUMPDEST MLOAD PUSH4 0x1E4FBDF7 PUSH1 0xE0 SHL DUP2 MSTORE SWAP1 DUP2 ADD DUP5 SWAP1 MSTORE PUSH1 0x24 SWAP1 REVERT JUMPDEST DUP5 DUP1 REVERT JUMPDEST POP CALLVALUE PUSH2 0x1C1 JUMPI DUP3 PUSH1 0x3 NOT CALLDATASIZE ADD SLT PUSH2 0x1C1 JUMPI PUSH2 0x26C PUSH2 0x7D3 JUMP JUMPDEST PUSH2 0x274 PUSH2 0x7FF JUMP JUMPDEST SELFBALANCE SWAP1 DUP2 ISZERO PUSH2 0x316 JUMPI PUSH1 0x1 DUP1 PUSH1 0xA0 SHL SUB SWAP1 DUP5 DUP1 DUP1 DUP1 DUP7 DUP7 DUP3 SLOAD AND GAS CALL PUSH2 0x297 PUSH2 0x732 JUMP JUMPDEST POP ISZERO PUSH2 0x2D3 JUMPI POP PUSH32 0x23D6711A1D031134A36921253C75AA59E967D38E369AC625992824315E204F20 SWAP2 PUSH1 0x20 SWAP2 DUP6 SLOAD AND SWAP4 MLOAD SWAP1 DUP2 MSTORE LOG2 PUSH1 0x1 DUP1 SSTORE DUP1 RETURN JUMPDEST PUSH1 0x64 SWAP1 PUSH1 0x20 DUP6 MLOAD SWAP2 PUSH3 0x461BCD PUSH1 0xE5 SHL DUP4 MSTORE DUP3 ADD MSTORE PUSH1 0x1B PUSH1 0x24 DUP3 ADD MSTORE PUSH32 0x456D657267656E6379207769746864726177616C206661696C65640000000000 PUSH1 0x44 DUP3 ADD MSTORE REVERT JUMPDEST PUSH1 0x64 SWAP1 PUSH1 0x20 DUP5 MLOAD SWAP2 PUSH3 0x461BCD PUSH1 0xE5 SHL DUP4 MSTORE DUP3 ADD MSTORE PUSH1 0xA PUSH1 0x24 DUP3 ADD MSTORE PUSH10 0x4E6F2062616C616E6365 PUSH1 0xB0 SHL PUSH1 0x44 DUP3 ADD MSTORE REVERT JUMPDEST POP CALLVALUE PUSH2 0x1C1 JUMPI PUSH1 0x20 CALLDATASIZE PUSH1 0x3 NOT ADD SLT PUSH2 0x1C1 JUMPI DUP1 CALLDATALOAD PUSH1 0x1 PUSH1 0x1 PUSH1 0xA0 SHL SUB DUP2 AND SWAP1 DUP2 SWAP1 SUB PUSH2 0x1BD JUMPI DUP4 PUSH1 0xFF SWAP3 DUP5 SWAP3 PUSH1 0x20 SWAP7 MSTORE DUP6 MSTORE KECCAK256 SLOAD AND SWAP1 MLOAD SWAP1 ISZERO ISZERO DUP2 MSTORE RETURN JUMPDEST POP CALLVALUE PUSH2 0x1C1 JUMPI PUSH1 0x20 CALLDATASIZE PUSH1 0x3 NOT ADD SLT PUSH2 0x1C1 JUMPI DUP1 CALLDATALOAD PUSH1 0x1 PUSH1 0x1 PUSH1 0xA0 SHL SUB DUP2 AND SWAP1 DUP2 SWAP1 SUB PUSH2 0x1BD JUMPI PUSH2 0x3B2 PUSH2 0x7D3 JUMP JUMPDEST DUP4 MSTORE PUSH1 0x20 MSTORE DUP2 KECCAK256 DUP1 SLOAD PUSH1 0xFF NOT AND SWAP1 SSTORE DUP1 RETURN JUMPDEST POP POP CALLVALUE PUSH2 0x3EC JUMPI DUP2 PUSH1 0x3 NOT CALLDATASIZE ADD SLT PUSH2 0x3EC JUMPI SWAP1 SLOAD SWAP1 MLOAD PUSH1 0x1 PUSH1 0x1 PUSH1 0xA0 SHL SUB SWAP1 SWAP2 AND DUP2 MSTORE PUSH1 0x20 SWAP1 RETURN JUMPDEST POP DUP1 REVERT JUMPDEST POP POP CALLVALUE PUSH2 0x3EC JUMPI DUP2 PUSH1 0x3 NOT CALLDATASIZE ADD SLT PUSH2 0x3EC JUMPI PUSH1 0x20 SWAP1 PUSH1 0x3 SLOAD SWAP1 MLOAD SWAP1 DUP2 MSTORE RETURN JUMPDEST POP CALLVALUE PUSH2 0x1C1 JUMPI DUP3 PUSH1 0x3 NOT CALLDATASIZE ADD SLT PUSH2 0x1C1 JUMPI PUSH2 0x428 PUSH2 0x7D3 JUMP JUMPDEST PUSH2 0x430 PUSH2 0x7FF JUMP JUMPDEST SELFBALANCE SWAP1 DUP2 ISZERO PUSH2 0x49F JUMPI POP PUSH1 0x20 DUP2 PUSH2 0x469 PUSH32 0x7FCF532C15F0A6DB0BD6D0E038BEA71D30D808C7D98CB3BF7268A95BF5081B65 SWAP4 PUSH1 0x3 SLOAD PUSH2 0x70F JUMP JUMPDEST PUSH1 0x3 SSTORE PUSH1 0x1 DUP1 PUSH1 0xA0 SHL SUB PUSH2 0x48F DUP7 DUP1 DUP1 DUP1 DUP7 DUP7 DUP3 SLOAD AND GAS CALL PUSH2 0x489 PUSH2 0x732 JUMP JUMPDEST POP PUSH2 0x793 JUMP JUMPDEST DUP6 SLOAD AND SWAP4 MLOAD SWAP1 DUP2 MSTORE LOG2 PUSH1 0x1 DUP1 SSTORE DUP1 RETURN JUMPDEST PUSH1 0x64 SWAP1 PUSH1 0x20 DUP5 MLOAD SWAP2 PUSH3 0x461BCD PUSH1 0xE5 SHL DUP4 MSTORE DUP3 ADD MSTORE PUSH1 0x16 PUSH1 0x24 DUP3 ADD MSTORE PUSH22 0x4E6F2062616C616E636520746F207769746864726177 PUSH1 0x50 SHL PUSH1 0x44 DUP3 ADD MSTORE REVERT JUMPDEST POP SWAP2 SWAP1 CALLVALUE PUSH2 0x3EC JUMPI DUP2 PUSH1 0x3 NOT CALLDATASIZE ADD SLT PUSH2 0x3EC JUMPI PUSH1 0x2 SLOAD SWAP2 PUSH1 0x3 SLOAD DUP4 SUB SWAP3 DUP4 GT PUSH2 0x508 JUMPI PUSH1 0x20 DUP4 DUP4 MLOAD SWAP1 DUP2 MSTORE RETURN JUMPDEST PUSH4 0x4E487B71 PUSH1 0xE0 SHL DUP2 MSTORE PUSH1 0x11 DUP5 MSTORE PUSH1 0x24 SWAP1 REVERT JUMPDEST DUP4 CALLVALUE PUSH2 0x575 JUMPI DUP1 PUSH1 0x3 NOT CALLDATASIZE ADD SLT PUSH2 0x575 JUMPI PUSH2 0x534 PUSH2 0x7D3 JUMP JUMPDEST DUP1 SLOAD PUSH1 0x1 PUSH1 0x1 PUSH1 0xA0 SHL SUB NOT DUP2 AND DUP3 SSTORE DUP2 SWAP1 PUSH1 0x1 PUSH1 0x1 PUSH1 0xA0 SHL SUB AND PUSH32 0x8BE0079C531659141344CD1FD0A4F28419497F9722A3DAAFE3B4186F6B6457E0 DUP3 DUP1 LOG3 DUP1 RETURN JUMPDEST DUP1 REVERT JUMPDEST POP CALLVALUE PUSH2 0x1C1 JUMPI PUSH1 0x20 CALLDATASIZE PUSH1 0x3 NOT ADD SLT PUSH2 0x1C1 JUMPI DUP1 CALLDATALOAD PUSH1 0x1 PUSH1 0x1 PUSH1 0xA0 SHL SUB DUP2 AND SWAP1 DUP2 SWAP1 SUB PUSH2 0x1BD JUMPI PUSH2 0x5A6 PUSH2 0x7D3 JUMP JUMPDEST DUP1 ISZERO PUSH2 0x5C1 JUMPI DUP4 MSTORE PUSH1 0x20 MSTORE DUP2 KECCAK256 DUP1 SLOAD PUSH1 0xFF NOT AND PUSH1 0x1 OR SWAP1 SSTORE DUP1 RETURN JUMPDEST POP PUSH1 0x20 PUSH1 0x64 SWAP3 MLOAD SWAP2 PUSH3 0x461BCD PUSH1 0xE5 SHL DUP4 MSTORE DUP3 ADD MSTORE PUSH1 0xF PUSH1 0x24 DUP3 ADD MSTORE PUSH15 0x496E76616C69642061646472657373 PUSH1 0x88 SHL PUSH1 0x44 DUP3 ADD MSTORE REVERT JUMPDEST POP POP CALLVALUE PUSH2 0x3EC JUMPI DUP2 PUSH1 0x3 NOT CALLDATASIZE ADD SLT PUSH2 0x3EC JUMPI PUSH1 0x20 SWAP1 PUSH1 0x2 SLOAD SWAP1 MLOAD SWAP1 DUP2 MSTORE RETURN JUMPDEST POP CALLVALUE PUSH2 0x1C1 JUMPI PUSH1 0x20 CALLDATASIZE PUSH1 0x3 NOT ADD SLT PUSH2 0x1C1 JUMPI DUP1 CALLDATALOAD SWAP1 PUSH2 0x632 PUSH2 0x7D3 JUMP JUMPDEST PUSH2 0x63A PUSH2 0x7FF JUMP JUMPDEST DUP2 ISZERO PUSH2 0x6B2 JUMPI SELFBALANCE DUP3 GT PUSH2 0x678 JUMPI POP PUSH1 0x20 DUP2 PUSH2 0x469 PUSH32 0x7FCF532C15F0A6DB0BD6D0E038BEA71D30D808C7D98CB3BF7268A95BF5081B65 SWAP4 PUSH1 0x3 SLOAD PUSH2 0x70F JUMP JUMPDEST PUSH1 0x64 SWAP1 PUSH1 0x20 DUP5 MLOAD SWAP2 PUSH3 0x461BCD PUSH1 0xE5 SHL DUP4 MSTORE DUP3 ADD MSTORE PUSH1 0x14 PUSH1 0x24 DUP3 ADD MSTORE PUSH20 0x496E73756666696369656E742062616C616E6365 PUSH1 0x60 SHL PUSH1 0x44 DUP3 ADD MSTORE REVERT JUMPDEST PUSH1 0x64 SWAP1 PUSH1 0x20 DUP5 MLOAD SWAP2 PUSH3 0x461BCD PUSH1 0xE5 SHL DUP4 MSTORE DUP3 ADD MSTORE PUSH1 0x1D PUSH1 0x24 DUP3 ADD MSTORE PUSH32 0x416D6F756E74206D7573742062652067726561746572207468616E2030000000 PUSH1 0x44 DUP3 ADD MSTORE REVERT JUMPDEST DUP5 SWAP1 CALLVALUE PUSH2 0x3EC JUMPI DUP2 PUSH1 0x3 NOT CALLDATASIZE ADD SLT PUSH2 0x3EC JUMPI PUSH1 0x20 SWAP1 SELFBALANCE DUP2 MSTORE RETURN JUMPDEST SWAP2 SWAP1 DUP3 ADD DUP1 SWAP3 GT PUSH2 0x71C JUMPI JUMP JUMPDEST PUSH4 0x4E487B71 PUSH1 0xE0 SHL PUSH1 0x0 MSTORE PUSH1 0x11 PUSH1 0x4 MSTORE PUSH1 0x24 PUSH1 0x0 REVERT JUMPDEST RETURNDATASIZE ISZERO PUSH2 0x78E JUMPI PUSH8 0xFFFFFFFFFFFFFFFF SWAP1 RETURNDATASIZE DUP3 DUP2 GT PUSH2 0x778 JUMPI PUSH1 0x40 MLOAD SWAP3 PUSH1 0x1F DUP3 ADD PUSH1 0x1F NOT SWAP1 DUP2 AND PUSH1 0x3F ADD AND DUP5 ADD SWAP1 DUP2 GT DUP5 DUP3 LT OR PUSH2 0x778 JUMPI PUSH1 0x40 MSTORE DUP3 MSTORE RETURNDATASIZE PUSH1 0x0 PUSH1 0x20 DUP5 ADD RETURNDATACOPY JUMP JUMPDEST PUSH4 0x4E487B71 PUSH1 0xE0 SHL PUSH1 0x0 MSTORE PUSH1 0x41 PUSH1 0x4 MSTORE PUSH1 0x24 PUSH1 0x0 REVERT JUMPDEST PUSH1 0x60 SWAP1 JUMP JUMPDEST ISZERO PUSH2 0x79A JUMPI JUMP JUMPDEST PUSH1 0x40 MLOAD PUSH3 0x461BCD PUSH1 0xE5 SHL DUP2 MSTORE PUSH1 0x20 PUSH1 0x4 DUP3 ADD MSTORE PUSH1 0x11 PUSH1 0x24 DUP3 ADD MSTORE PUSH17 0x15DA5D1A191C985DD85B0819985A5B1959 PUSH1 0x7A SHL PUSH1 0x44 DUP3 ADD MSTORE PUSH1 0x64 SWAP1 REVERT JUMPDEST PUSH1 0x0 SLOAD PUSH1 0x1 PUSH1 0x1 PUSH1 0xA0 SHL SUB AND CALLER SUB PUSH2 0x7E7 JUMPI JUMP JUMPDEST PUSH1 0x40 MLOAD PUSH4 0x118CDAA7 PUSH1 0xE0 SHL DUP2 MSTORE CALLER PUSH1 0x4 DUP3 ADD MSTORE PUSH1 0x24 SWAP1 REVERT JUMPDEST PUSH1 0x2 PUSH1 0x1 SLOAD EQ PUSH2 0x810 JUMPI PUSH1 0x2 PUSH1 0x1 SSTORE JUMP JUMPDEST PUSH1 0x40 MLOAD PUSH4 0x3EE5AEB5 PUSH1 0xE0 SHL DUP2 MSTORE PUSH1 0x4 SWAP1 REVERT INVALID LOG2 PUSH5 0x6970667358 0x22 SLT KECCAK256 MULMOD 0xEC 0xF PUSH26 0xD0127D76E019C2E3FE46E2BBD07EAFDB47726FAB1C900F8ABFE6 CALLDATASIZE 0xC1 PUSH5 0x736F6C6343 STOP ADDMOD XOR STOP CALLER "},"methodIdentifiers":{"authorizeContract(address)":"67561d93","authorizedContracts(address)":"d5b9221b","emergencyWithdraw()":"db2e21bc","getAvailableBalance()":"809dab6a","getBalance()":"12065fe0","getTotalFeesCollected()":"46876508","getTotalWithdrawn()":"89404a79","isAuthorized(address)":"fe9fbb80","owner()":"8da5cb5b","renounceOwnership()":"715018a6","revokeContract(address)":"cc2e3ee1","totalFeesCollected()":"60c6d8ae","totalWithdrawn()":"4b319713","transferOwnership(address)":"f2fde38b","withdraw(uint256)":"2e1a7d4d","withdrawAll()":"853828b6"}}}}}