{
  "_format": "hh-sol-artifact-1",
  "contractName": "Vault",
  "sourceName": "contracts/Vault.sol",
  "abi": [
    {
      "inputs": [],
      "stateMutability": "nonpayable",
      "type": "constructor"
    },
    {
      "inputs": [
        {
          "internalType": "address",
          "name": "owner",
          "type": "address"
        }
      ],
      "name": "OwnableInvalidOwner",
      "type": "error"
    },
    {
      "inputs": [
        {
          "internalType": "address",
          "name": "account",
          "type": "address"
        }
      ],
      "name": "OwnableUnauthorizedAccount",
      "type": "error"
    },
    {
      "inputs": [],
      "name": "ReentrancyGuardReentrantCall",
      "type": "error"
    },
    {
      "anonymous": false,
      "inputs": [
        {
          "indexed": true,
          "internalType": "address",
          "name": "to",
          "type": "address"
        },
        {
          "indexed": false,
          "internalType": "uint256",
          "name": "amount",
          "type": "uint256"
        }
      ],
      "name": "EmergencyWithdrawal",
      "type": "event"
    },
    {
      "anonymous": false,
      "inputs": [
        {
          "indexed": true,
          "internalType": "address",
          "name": "from",
          "type": "address"
        },
        {
          "indexed": false,
          "internalType": "uint256",
          "name": "amount",
          "type": "uint256"
        },
        {
          "indexed": false,
          "internalType": "string",
          "name": "source",
          "type": "string"
        }
      ],
      "name": "FeeReceived",
      "type": "event"
    },
    {
      "anonymous": false,
      "inputs": [
        {
          "indexed": true,
          "internalType": "address",
          "name": "previousOwner",
          "type": "address"
        },
        {
          "indexed": true,
          "internalType": "address",
          "name": "newOwner",
          "type": "address"
        }
      ],
      "name": "OwnershipTransferred",
      "type": "event"
    },
    {
      "anonymous": false,
      "inputs": [
        {
          "indexed": true,
          "internalType": "address",
          "name": "to",
          "type": "address"
        },
        {
          "indexed": false,
          "internalType": "uint256",
          "name": "amount",
          "type": "uint256"
        }
      ],
      "name": "Withdrawal",
      "type": "event"
    },
    {
      "stateMutability": "payable",
      "type": "fallback"
    },
    {
      "inputs": [
        {
          "internalType": "address",
          "name": "contractAddress",
          "type": "address"
        }
      ],
      "name": "authorizeContract",
      "outputs": [],
      "stateMutability": "nonpayable",
      "type": "function"
    },
    {
      "inputs": [
        {
          "internalType": "address",
          "name": "",
          "type": "address"
        }
      ],
      "name": "authorizedContracts",
      "outputs": [
        {
          "internalType": "bool",
          "name": "",
          "type": "bool"
        }
      ],
      "stateMutability": "view",
      "type": "function"
    },
    {
      "inputs": [],
      "name": "emergencyWithdraw",
      "outputs": [],
      "stateMutability": "nonpayable",
      "type": "function"
    },
    {
      "inputs": [],
      "name": "getAvailableBalance",
      "outputs": [
        {
          "internalType": "uint256",
          "name": "",
          "type": "uint256"
        }
      ],
      "stateMutability": "view",
      "type": "function"
    },
    {
      "inputs": [],
      "name": "getBalance",
      "outputs": [
        {
          "internalType": "uint256",
          "name": "",
          "type": "uint256"
        }
      ],
      "stateMutability": "view",
      "type": "function"
    },
    {
      "inputs": [],
      "name": "getTotalFeesCollected",
      "outputs": [
        {
          "internalType": "uint256",
          "name": "",
          "type": "uint256"
        }
      ],
      "stateMutability": "view",
      "type": "function"
    },
    {
      "inputs": [],
      "name": "getTotalWithdrawn",
      "outputs": [
        {
          "internalType": "uint256",
          "name": "",
          "type": "uint256"
        }
      ],
      "stateMutability": "view",
      "type": "function"
    },
    {
      "inputs": [
        {
          "internalType": "address",
          "name": "contractAddress",
          "type": "address"
        }
      ],
      "name": "isAuthorized",
      "outputs": [
        {
          "internalType": "bool",
          "name": "",
          "type": "bool"
        }
      ],
      "stateMutability": "view",
      "type": "function"
    },
    {
      "inputs": [],
      "name": "owner",
      "outputs": [
        {
          "internalType": "address",
          "name": "",
          "type": "address"
        }
      ],
      "stateMutability": "view",
      "type": "function"
    },
    {
      "inputs": [],
      "name": "renounceOwnership",
      "outputs": [],
      "stateMutability": "nonpayable",
      "type": "function"
    },
    {
      "inputs": [
        {
          "internalType": "address",
          "name": "contractAddress",
          "type": "address"
        }
      ],
      "name": "revokeContract",
      "outputs": [],
      "stateMutability": "nonpayable",
      "type": "function"
    },
    {
      "inputs": [],
      "name": "totalFeesCollected",
      "outputs": [
        {
          "internalType": "uint256",
          "name": "",
          "type": "uint256"
        }
      ],
      "stateMutability": "view",
      "type": "function"
    },
    {
      "inputs": [],
      "name": "totalWithdrawn",
      "outputs": [
        {
          "internalType": "uint256",
          "name": "",
          "type": "uint256"
        }
      ],
      "stateMutability": "view",
      "type": "function"
    },
    {
      "inputs": [
        {
          "internalType": "address",
          "name": "newOwner",
          "type": "address"
        }
      ],
      "name": "transferOwnership",
      "outputs": [],
      "stateMutability": "nonpayable",
      "type": "function"
    },
    {
      "inputs": [
        {
          "internalType": "uint256",
          "name": "amount",
          "type": "uint256"
        }
      ],
      "name": "withdraw",
      "outputs": [],
      "stateMutability": "nonpayable",
      "type": "function"
    },
    {
      "inputs": [],
      "name": "withdrawAll",
      "outputs": [],
      "stateMutability": "nonpayable",
      "type": "function"
    },
    {
      "stateMutability": "payable",
      "type": "receive"
    }
  ],
  "bytecode": "0x6080806040523461008357331561006d5760008054336001600160a01b031982168117835560405192916001600160a01b03167f8be0079c531659141344cd1fd0a4f28419497f9722a3daafe3b4186f6b6457e08380a3600180558060025560035561085890816100898239f35b631e4fbdf760e01b815260006004820152602490fd5b600080fdfe608060408181526004803610156100c7575b5090503615610073576100263460025461070f565b60025560088151913483528060208401528201526766616c6c6261636b60c01b60608201527fefb6ba912a5a627d600a42f14016099adf2d253ba13c372e50bfae556bb43c3960803392a2005b61007f3460025461070f565b60025560038151913483528060208401528201526266656560e81b60608201527fefb6ba912a5a627d600a42f14016099adf2d253ba13c372e50bfae556bb43c3960803392a2005b600092833560e01c90816312065fe0146106f5575080632e1a7d4d1461061557806346876508146105f65780634b319713146103f057806360c6d8ae146105f657806367561d9314610578578063715018a61461051b578063809dab6a146104db578063853828b61461040f57806389404a79146103f05780638da5cb5b146103c4578063cc2e3ee114610384578063d5b9221b14610346578063db2e21bc14610253578063f2fde38b146101c55763fe9fbb800361001157346101c15760203660031901126101c15780356001600160a01b038116908190036101bd578360ff92849260209652855220541690519015158152f35b8380fd5b8280fd5b5090346101c15760203660031901126101c1576001600160a01b0382358181169391929084900361024f576101f86107d3565b831561023957505082546001600160a01b0319811683178455167f8be0079c531659141344cd1fd0a4f28419497f9722a3daafe3b4186f6b6457e08380a380f35b51631e4fbdf760e01b8152908101849052602490fd5b8480fd5b50346101c157826003193601126101c15761026c6107d3565b6102746107ff565b479081156103165760018060a01b03908480808086868254165af1610297610732565b50156102d357507f23d6711a1d031134a36921253c75aa59e967d38e369ac625992824315e204f20916020918554169351908152a26001805580f35b606490602085519162461bcd60e51b8352820152601b60248201527f456d657267656e6379207769746864726177616c206661696c656400000000006044820152fd5b606490602084519162461bcd60e51b8352820152600a6024820152694e6f2062616c616e636560b01b6044820152fd5b50346101c15760203660031901126101c15780356001600160a01b038116908190036101bd578360ff92849260209652855220541690519015158152f35b50346101c15760203660031901126101c15780356001600160a01b038116908190036101bd576103b26107d3565b83526020528120805460ff1916905580f35b5050346103ec57816003193601126103ec57905490516001600160a01b039091168152602090f35b5080fd5b5050346103ec57816003193601126103ec576020906003549051908152f35b50346101c157826003193601126101c1576104286107d3565b6104306107ff565b4790811561049f57506020816104697f7fcf532c15f0a6db0bd6d0e038bea71d30d808c7d98cb3bf7268a95bf5081b659360035461070f565b60035560018060a01b0361048f8680808086868254165af1610489610732565b50610793565b8554169351908152a26001805580f35b606490602084519162461bcd60e51b835282015260166024820152754e6f2062616c616e636520746f20776974686472617760501b6044820152fd5b509190346103ec57816003193601126103ec57600254916003548303928311610508576020838351908152f35b634e487b7160e01b815260118452602490fd5b83346105755780600319360112610575576105346107d3565b80546001600160a01b03198116825581906001600160a01b03167f8be0079c531659141344cd1fd0a4f28419497f9722a3daafe3b4186f6b6457e08280a380f35b80fd5b50346101c15760203660031901126101c15780356001600160a01b038116908190036101bd576105a66107d3565b80156105c15783526020528120805460ff1916600117905580f35b506020606492519162461bcd60e51b8352820152600f60248201526e496e76616c6964206164647265737360881b6044820152fd5b5050346103ec57816003193601126103ec576020906002549051908152f35b50346101c15760203660031901126101c1578035906106326107d3565b61063a6107ff565b81156106b25747821161067857506020816104697f7fcf532c15f0a6db0bd6d0e038bea71d30d808c7d98cb3bf7268a95bf5081b659360035461070f565b606490602084519162461bcd60e51b83528201526014602482015273496e73756666696369656e742062616c616e636560601b6044820152fd5b606490602084519162461bcd60e51b8352820152601d60248201527f416d6f756e74206d7573742062652067726561746572207468616e20300000006044820152fd5b8490346103ec57816003193601126103ec57602090478152f35b9190820180921161071c57565b634e487b7160e01b600052601160045260246000fd5b3d1561078e5767ffffffffffffffff903d8281116107785760405192601f8201601f19908116603f01168401908111848210176107785760405282523d6000602084013e565b634e487b7160e01b600052604160045260246000fd5b606090565b1561079a57565b60405162461bcd60e51b815260206004820152601160248201527015da5d1a191c985dd85b0819985a5b1959607a1b6044820152606490fd5b6000546001600160a01b031633036107e757565b60405163118cdaa760e01b8152336004820152602490fd5b600260015414610810576002600155565b604051633ee5aeb560e01b8152600490fdfea2646970667358221220b07bee369168db4fecc63d828b48ec9e7722ee8c708c8c9c3b7066d7c356b0b864736f6c63430008180033",
  "linkReferences": {},
  "deployedLinkReferences": {}
}